{
  "_format": "hh-sol-artifact-1",
  "contractName": "AlgebraFactory",
  "sourceName": "contracts/AlgebraFactory.sol",
  "abi": [
    {
      "inputs": [
        {
          "internalType": "address",
          "name": "_poolDeployer",
          "type": "address"
        }
      ],
      "stateMutability": "nonpayable",
      "type": "constructor"
    },
    {
      "anonymous": false,
      "inputs": [
        {
          "indexed": false,
          "internalType": "uint16",
          "name": "newDefaultCommunityFee",
          "type": "uint16"
        }
      ],
      "name": "DefaultCommunityFee",
      "type": "event"
    },
    {
      "anonymous": false,
      "inputs": [
        {
          "indexed": false,
          "internalType": "uint16",
          "name": "newDefaultFee",
          "type": "uint16"
        }
      ],
      "name": "DefaultFee",
      "type": "event"
    },
    {
      "anonymous": false,
      "inputs": [
        {
          "indexed": false,
          "internalType": "address",
          "name": "defaultPluginFactoryAddress",
          "type": "address"
        }
      ],
      "name": "DefaultPluginFactory",
      "type": "event"
    },
    {
      "anonymous": false,
      "inputs": [
        {
          "indexed": false,
          "internalType": "int24",
          "name": "newDefaultTickspacing",
          "type": "int24"
        }
      ],
      "name": "DefaultTickspacing",
      "type": "event"
    },
    {
      "anonymous": false,
      "inputs": [
        {
          "indexed": true,
          "internalType": "address",
          "name": "previousOwner",
          "type": "address"
        },
        {
          "indexed": true,
          "internalType": "address",
          "name": "newOwner",
          "type": "address"
        }
      ],
      "name": "OwnershipTransferStarted",
      "type": "event"
    },
    {
      "anonymous": false,
      "inputs": [
        {
          "indexed": true,
          "internalType": "address",
          "name": "previousOwner",
          "type": "address"
        },
        {
          "indexed": true,
          "internalType": "address",
          "name": "newOwner",
          "type": "address"
        }
      ],
      "name": "OwnershipTransferred",
      "type": "event"
    },
    {
      "anonymous": false,
      "inputs": [
        {
          "indexed": true,
          "internalType": "address",
          "name": "token0",
          "type": "address"
        },
        {
          "indexed": true,
          "internalType": "address",
          "name": "token1",
          "type": "address"
        },
        {
          "indexed": false,
          "internalType": "address",
          "name": "pool",
          "type": "address"
        }
      ],
      "name": "Pool",
      "type": "event"
    },
    {
      "anonymous": false,
      "inputs": [
        {
          "indexed": false,
          "internalType": "uint256",
          "name": "timestamp",
          "type": "uint256"
        }
      ],
      "name": "RenounceOwnershipFinish",
      "type": "event"
    },
    {
      "anonymous": false,
      "inputs": [
        {
          "indexed": false,
          "internalType": "uint256",
          "name": "timestamp",
          "type": "uint256"
        },
        {
          "indexed": false,
          "internalType": "uint256",
          "name": "finishTimestamp",
          "type": "uint256"
        }
      ],
      "name": "RenounceOwnershipStart",
      "type": "event"
    },
    {
      "anonymous": false,
      "inputs": [
        {
          "indexed": false,
          "internalType": "uint256",
          "name": "timestamp",
          "type": "uint256"
        }
      ],
      "name": "RenounceOwnershipStop",
      "type": "event"
    },
    {
      "anonymous": false,
      "inputs": [
        {
          "indexed": true,
          "internalType": "bytes32",
          "name": "role",
          "type": "bytes32"
        },
        {
          "indexed": true,
          "internalType": "bytes32",
          "name": "previousAdminRole",
          "type": "bytes32"
        },
        {
          "indexed": true,
          "internalType": "bytes32",
          "name": "newAdminRole",
          "type": "bytes32"
        }
      ],
      "name": "RoleAdminChanged",
      "type": "event"
    },
    {
      "anonymous": false,
      "inputs": [
        {
          "indexed": true,
          "internalType": "bytes32",
          "name": "role",
          "type": "bytes32"
        },
        {
          "indexed": true,
          "internalType": "address",
          "name": "account",
          "type": "address"
        },
        {
          "indexed": true,
          "internalType": "address",
          "name": "sender",
          "type": "address"
        }
      ],
      "name": "RoleGranted",
      "type": "event"
    },
    {
      "anonymous": false,
      "inputs": [
        {
          "indexed": true,
          "internalType": "bytes32",
          "name": "role",
          "type": "bytes32"
        },
        {
          "indexed": true,
          "internalType": "address",
          "name": "account",
          "type": "address"
        },
        {
          "indexed": true,
          "internalType": "address",
          "name": "sender",
          "type": "address"
        }
      ],
      "name": "RoleRevoked",
      "type": "event"
    },
    {
      "inputs": [],
      "name": "DEFAULT_ADMIN_ROLE",
      "outputs": [
        {
          "internalType": "bytes32",
          "name": "",
          "type": "bytes32"
        }
      ],
      "stateMutability": "view",
      "type": "function"
    },
    {
      "inputs": [],
      "name": "POOLS_ADMINISTRATOR_ROLE",
      "outputs": [
        {
          "internalType": "bytes32",
          "name": "",
          "type": "bytes32"
        }
      ],
      "stateMutability": "view",
      "type": "function"
    },
    {
      "inputs": [],
      "name": "acceptOwnership",
      "outputs": [],
      "stateMutability": "nonpayable",
      "type": "function"
    },
    {
      "inputs": [],
      "name": "communityVault",
      "outputs": [
        {
          "internalType": "address",
          "name": "",
          "type": "address"
        }
      ],
      "stateMutability": "view",
      "type": "function"
    },
    {
      "inputs": [
        {
          "internalType": "address",
          "name": "token0",
          "type": "address"
        },
        {
          "internalType": "address",
          "name": "token1",
          "type": "address"
        }
      ],
      "name": "computePoolAddress",
      "outputs": [
        {
          "internalType": "address",
          "name": "pool",
          "type": "address"
        }
      ],
      "stateMutability": "view",
      "type": "function"
    },
    {
      "inputs": [
        {
          "internalType": "address",
          "name": "tokenA",
          "type": "address"
        },
        {
          "internalType": "address",
          "name": "tokenB",
          "type": "address"
        }
      ],
      "name": "createPool",
      "outputs": [
        {
          "internalType": "address",
          "name": "pool",
          "type": "address"
        }
      ],
      "stateMutability": "nonpayable",
      "type": "function"
    },
    {
      "inputs": [],
      "name": "defaultCommunityFee",
      "outputs": [
        {
          "internalType": "uint16",
          "name": "",
          "type": "uint16"
        }
      ],
      "stateMutability": "view",
      "type": "function"
    },
    {
      "inputs": [],
      "name": "defaultConfigurationForPool",
      "outputs": [
        {
          "internalType": "uint16",
          "name": "communityFee",
          "type": "uint16"
        },
        {
          "internalType": "int24",
          "name": "tickSpacing",
          "type": "int24"
        },
        {
          "internalType": "uint16",
          "name": "fee",
          "type": "uint16"
        }
      ],
      "stateMutability": "view",
      "type": "function"
    },
    {
      "inputs": [],
      "name": "defaultFee",
      "outputs": [
        {
          "internalType": "uint16",
          "name": "",
          "type": "uint16"
        }
      ],
      "stateMutability": "view",
      "type": "function"
    },
    {
      "inputs": [],
      "name": "defaultPluginFactory",
      "outputs": [
        {
          "internalType": "contract IAlgebraPluginFactory",
          "name": "",
          "type": "address"
        }
      ],
      "stateMutability": "view",
      "type": "function"
    },
    {
      "inputs": [],
      "name": "defaultTickspacing",
      "outputs": [
        {
          "internalType": "int24",
          "name": "",
          "type": "int24"
        }
      ],
      "stateMutability": "view",
      "type": "function"
    },
    {
      "inputs": [
        {
          "internalType": "bytes32",
          "name": "role",
          "type": "bytes32"
        }
      ],
      "name": "getRoleAdmin",
      "outputs": [
        {
          "internalType": "bytes32",
          "name": "",
          "type": "bytes32"
        }
      ],
      "stateMutability": "view",
      "type": "function"
    },
    {
      "inputs": [
        {
          "internalType": "bytes32",
          "name": "role",
          "type": "bytes32"
        },
        {
          "internalType": "uint256",
          "name": "index",
          "type": "uint256"
        }
      ],
      "name": "getRoleMember",
      "outputs": [
        {
          "internalType": "address",
          "name": "",
          "type": "address"
        }
      ],
      "stateMutability": "view",
      "type": "function"
    },
    {
      "inputs": [
        {
          "internalType": "bytes32",
          "name": "role",
          "type": "bytes32"
        }
      ],
      "name": "getRoleMemberCount",
      "outputs": [
        {
          "internalType": "uint256",
          "name": "",
          "type": "uint256"
        }
      ],
      "stateMutability": "view",
      "type": "function"
    },
    {
      "inputs": [
        {
          "internalType": "bytes32",
          "name": "role",
          "type": "bytes32"
        },
        {
          "internalType": "address",
          "name": "account",
          "type": "address"
        }
      ],
      "name": "grantRole",
      "outputs": [],
      "stateMutability": "nonpayable",
      "type": "function"
    },
    {
      "inputs": [
        {
          "internalType": "bytes32",
          "name": "role",
          "type": "bytes32"
        },
        {
          "internalType": "address",
          "name": "account",
          "type": "address"
        }
      ],
      "name": "hasRole",
      "outputs": [
        {
          "internalType": "bool",
          "name": "",
          "type": "bool"
        }
      ],
      "stateMutability": "view",
      "type": "function"
    },
    {
      "inputs": [
        {
          "internalType": "bytes32",
          "name": "role",
          "type": "bytes32"
        },
        {
          "internalType": "address",
          "name": "account",
          "type": "address"
        }
      ],
      "name": "hasRoleOrOwner",
      "outputs": [
        {
          "internalType": "bool",
          "name": "",
          "type": "bool"
        }
      ],
      "stateMutability": "view",
      "type": "function"
    },
    {
      "inputs": [],
      "name": "owner",
      "outputs": [
        {
          "internalType": "address",
          "name": "",
          "type": "address"
        }
      ],
      "stateMutability": "view",
      "type": "function"
    },
    {
      "inputs": [],
      "name": "pendingOwner",
      "outputs": [
        {
          "internalType": "address",
          "name": "",
          "type": "address"
        }
      ],
      "stateMutability": "view",
      "type": "function"
    },
    {
      "inputs": [
        {
          "internalType": "address",
          "name": "",
          "type": "address"
        },
        {
          "internalType": "address",
          "name": "",
          "type": "address"
        }
      ],
      "name": "poolByPair",
      "outputs": [
        {
          "internalType": "address",
          "name": "",
          "type": "address"
        }
      ],
      "stateMutability": "view",
      "type": "function"
    },
    {
      "inputs": [],
      "name": "poolDeployer",
      "outputs": [
        {
          "internalType": "address",
          "name": "",
          "type": "address"
        }
      ],
      "stateMutability": "view",
      "type": "function"
    },
    {
      "inputs": [],
      "name": "renounceOwnership",
      "outputs": [],
      "stateMutability": "nonpayable",
      "type": "function"
    },
    {
      "inputs": [],
      "name": "renounceOwnershipStartTimestamp",
      "outputs": [
        {
          "internalType": "uint256",
          "name": "",
          "type": "uint256"
        }
      ],
      "stateMutability": "view",
      "type": "function"
    },
    {
      "inputs": [
        {
          "internalType": "bytes32",
          "name": "role",
          "type": "bytes32"
        },
        {
          "internalType": "address",
          "name": "account",
          "type": "address"
        }
      ],
      "name": "renounceRole",
      "outputs": [],
      "stateMutability": "nonpayable",
      "type": "function"
    },
    {
      "inputs": [
        {
          "internalType": "bytes32",
          "name": "role",
          "type": "bytes32"
        },
        {
          "internalType": "address",
          "name": "account",
          "type": "address"
        }
      ],
      "name": "revokeRole",
      "outputs": [],
      "stateMutability": "nonpayable",
      "type": "function"
    },
    {
      "inputs": [
        {
          "internalType": "uint16",
          "name": "newDefaultCommunityFee",
          "type": "uint16"
        }
      ],
      "name": "setDefaultCommunityFee",
      "outputs": [],
      "stateMutability": "nonpayable",
      "type": "function"
    },
    {
      "inputs": [
        {
          "internalType": "uint16",
          "name": "newDefaultFee",
          "type": "uint16"
        }
      ],
      "name": "setDefaultFee",
      "outputs": [],
      "stateMutability": "nonpayable",
      "type": "function"
    },
    {
      "inputs": [
        {
          "internalType": "address",
          "name": "newDefaultPluginFactory",
          "type": "address"
        }
      ],
      "name": "setDefaultPluginFactory",
      "outputs": [],
      "stateMutability": "nonpayable",
      "type": "function"
    },
    {
      "inputs": [
        {
          "internalType": "int24",
          "name": "newDefaultTickspacing",
          "type": "int24"
        }
      ],
      "name": "setDefaultTickspacing",
      "outputs": [],
      "stateMutability": "nonpayable",
      "type": "function"
    },
    {
      "inputs": [],
      "name": "startRenounceOwnership",
      "outputs": [],
      "stateMutability": "nonpayable",
      "type": "function"
    },
    {
      "inputs": [],
      "name": "stopRenounceOwnership",
      "outputs": [],
      "stateMutability": "nonpayable",
      "type": "function"
    },
    {
      "inputs": [
        {
          "internalType": "bytes4",
          "name": "interfaceId",
          "type": "bytes4"
        }
      ],
      "name": "supportsInterface",
      "outputs": [
        {
          "internalType": "bool",
          "name": "",
          "type": "bool"
        }
      ],
      "stateMutability": "view",
      "type": "function"
    },
    {
      "inputs": [
        {
          "internalType": "address",
          "name": "newOwner",
          "type": "address"
        }
      ],
      "name": "transferOwnership",
      "outputs": [],
      "stateMutability": "nonpayable",
      "type": "function"
    }
  ],
  "bytecode": "0x60c06040523480156200001157600080fd5b506040516200375d3803806200375d8339810160408190526200003491620004fd565b6200003f3362000131565b6001600160a01b0381166200005357600080fd5b6001600160a01b03811660805260405133906200007090620004ef565b6001600160a01b039091168152602001604051809103906000f0801580156200009d573d6000803e3d6000fd5b506001600160a01b031660a0526004805466ffffffffff00001916643c01f40000179055604051603c81527f7d7979096f943139ebee59f01c077a0f0766d06c40c86d596f23ed2561547cce9060200160405180910390a16040516101f481527fddc0c6f0b581e0d51bfe90ff138e4a548f94515c4dbcb12f5e98fdf0f75039839060200160405180910390a1506200057d565b6200015060006200014a6000546001600160a01b031690565b6200017d565b6200015b81620001a8565b6200017a6000620001746000546001600160a01b031690565b620001c3565b50565b620001898282620001e9565b6000828152600360205260409020620001a390826200026e565b505050565b600180546001600160a01b03191690556200017a816200028e565b620001cf8282620002de565b6000828152600360205260409020620001a3908262000382565b60008281526002602090815260408083206001600160a01b038516845290915290205460ff16156200026a5760008281526002602090815260408083206001600160a01b0385168085529252808320805460ff1916905551339285917ff6391f5c32d9c69d2a47ea670b442974b53935d1edc7fd64eb21e047a839171b9190a45b5050565b600062000285836001600160a01b03841662000399565b90505b92915050565b600080546001600160a01b038381166001600160a01b0319831681178455604051919092169283917f8be0079c531659141344cd1fd0a4f28419497f9722a3daafe3b4186f6b6457e09190a35050565b60008281526002602090815260408083206001600160a01b038516845290915290205460ff166200026a5760008281526002602090815260408083206001600160a01b03851684529091529020805460ff191660011790556200033e3390565b6001600160a01b0316816001600160a01b0316837f2f8788117e7eff1d82e926ec794901d17c78024a50270940304540a733656f0d60405160405180910390a45050565b600062000285836001600160a01b0384166200049d565b6000818152600183016020526040812054801562000492576000620003c06001836200052f565b8554909150600090620003d6906001906200052f565b905081811462000442576000866000018281548110620003fa57620003fa62000551565b906000526020600020015490508087600001848154811062000420576200042062000551565b6000918252602080832090910192909255918252600188019052604090208390555b855486908062000456576200045662000567565b60019003818190600052602060002001600090559055856001016000868152602001908152602001600020600090556001935050505062000288565b600091505062000288565b6000818152600183016020526040812054620004e65750815460018181018455600084815260208082209093018490558454848252828601909352604090209190915562000288565b50600062000288565b61138980620023d483390190565b6000602082840312156200051057600080fd5b81516001600160a01b03811681146200052857600080fd5b9392505050565b818103818111156200028857634e487b7160e01b600052601160045260246000fd5b634e487b7160e01b600052603260045260246000fd5b634e487b7160e01b600052603160045260246000fd5b60805160a051611e23620005b1600039600061038c01526000818161032501528181610af00152610e530152611e236000f3fe608060405234801561001057600080fd5b506004361061020b5760003560e01c806379ba50971161012a578063d0ad2792116100bd578063e30c39781161008c578063e8ae2b6911610071578063e8ae2b6914610569578063f09489ac1461057c578063f2fde38b1461058f57600080fd5b8063e30c397814610538578063e34336151461055657600080fd5b8063d0ad2792146104b1578063d547741f146104d1578063d8ed2241146104e4578063d9a641e1146104f757600080fd5b806391d14854116100f957806391d1485414610429578063a217fddf1461046f578063b500a48b14610477578063ca15c8731461049e57600080fd5b806379ba5097146103dd5780638d5a8711146103e55780638da5cb5b146103f85780639010d07c1461041657600080fd5b80632f8a39dd116101a257806353e978681161017157806353e97868146103875780635a6c72d0146103ae578063715018a6146103c257806377326584146103ca57600080fd5b80632f8a39dd146102ff5780633119049a1461032057806336568abe1461036c578063469388c41461037f57600080fd5b806325b355d6116101de57806325b355d61461027c5780632939dd97146102b157806329bc3446146102c45780632f2ff15d146102ec57600080fd5b806301ffc9a714610210578063084bfff914610238578063238a1d741461024f578063248a9ca314610259575b600080fd5b61022361021e366004611a74565b6105a2565b60405190151581526020015b60405180910390f35b61024160055481565b60405190815260200161022f565b6102576105fe565b005b610241610267366004611ab6565b60009081526002602052604090206001015490565b6004546040805161ffff8084168252640100000000840460020b6020830152620100009093049092169082015260600161022f565b6102576102bf366004611af1565b610650565b6004546102d990640100000000900460020b81565b60405160029190910b815260200161022f565b6102576102fa366004611b0e565b6106fa565b60045461030d9061ffff1681565b60405161ffff909116815260200161022f565b6103477f000000000000000000000000000000000000000000000000000000000000000081565b60405173ffffffffffffffffffffffffffffffffffffffff909116815260200161022f565b61025761037a366004611b0e565b610724565b6102576107dc565b6103477f000000000000000000000000000000000000000000000000000000000000000081565b60045461030d9062010000900461ffff1681565b61025761083b565b6102576103d8366004611b3e565b6108ac565b61025761094b565b6102576103f3366004611b3e565b610a00565b60005473ffffffffffffffffffffffffffffffffffffffff16610347565b610347610424366004611b62565b610a91565b610223610437366004611b0e565b600091825260026020908152604080842073ffffffffffffffffffffffffffffffffffffffff93909316845291905290205460ff1690565b610241600081565b6102417fb73ce166ead2f8e9add217713a7989e4edfba9625f71dfd2516204bb67ad344281565b6102416104ac366004611ab6565b610ab0565b6006546103479073ffffffffffffffffffffffffffffffffffffffff1681565b6102576104df366004611b0e565b610ac7565b6103476104f2366004611b84565b610aec565b610347610505366004611b84565b600760209081526000928352604080842090915290825290205473ffffffffffffffffffffffffffffffffffffffff1681565b60015473ffffffffffffffffffffffffffffffffffffffff16610347565b610347610564366004611b84565b610c45565b610223610577366004611b0e565b610f7b565b61025761058a366004611bb2565b611008565b61025761059d366004611af1565b6110bd565b60007fffffffff0000000000000000000000000000000000000000000000000000000082167f5a05180f0000000000000000000000000000000000000000000000000000000014806105f857506105f88261116c565b92915050565b610606611203565b60055460000361061557600080fd5b60006005556040514281527fa2492902a0a1d28dc73e6ab22e473239ef077bb7bc8174dc7dab9fc0818e7135906020015b60405180910390a1565b610658611203565b60065473ffffffffffffffffffffffffffffffffffffffff9081169082160361068057600080fd5b600680547fffffffffffffffffffffffff00000000000000000000000000000000000000001673ffffffffffffffffffffffffffffffffffffffff83169081179091556040519081527f5e38e259ec1f8a38b98fc65a27e266bb9cc87c76eb8c96c957450d1cff4591ef906020015b60405180910390a150565b60008281526002602052604090206001015461071581611286565b61071f8383611290565b505050565b73ffffffffffffffffffffffffffffffffffffffff811633146107ce576040517f08c379a000000000000000000000000000000000000000000000000000000000815260206004820152602f60248201527f416363657373436f6e74726f6c3a2063616e206f6e6c792072656e6f756e636560448201527f20726f6c657320666f722073656c66000000000000000000000000000000000060648201526084015b60405180910390fd5b6107d882826112b2565b5050565b6107e4611203565b600554156107f157600080fd5b4260058190557fcd60f5d54996130c21c3f063279b39230bcbafc12f763a1ac1dfaec2e9b61d29906108266201518082611c04565b60408051928352602083019190915201610646565b610843611203565b60055460000361085257600080fd5b62015180600554426108649190611c17565b101561086f57600080fd5b600060055561087c6112d4565b6040514281527fa24203c457ce43a097fa0c491fc9cf5e0a893af87a5e0a9785f29491deb11e2390602001610646565b6108b4611203565b61c35061ffff821611156108c757600080fd5b60045461ffff8083166201000090920416036108e257600080fd5b600480547fffffffffffffffffffffffffffffffffffffffffffffffffffffffff0000ffff166201000061ffff8416908102919091179091556040519081527fddc0c6f0b581e0d51bfe90ff138e4a548f94515c4dbcb12f5e98fdf0f7503983906020016106ef565b600154339073ffffffffffffffffffffffffffffffffffffffff1681146109f4576040517f08c379a000000000000000000000000000000000000000000000000000000000815260206004820152602960248201527f4f776e61626c6532537465703a2063616c6c6572206973206e6f74207468652060448201527f6e6577206f776e6572000000000000000000000000000000000000000000000060648201526084016107c5565b6109fd816112e2565b50565b610a08611203565b6103e861ffff82161115610a1b57600080fd5b60045461ffff808316911603610a3057600080fd5b600480547fffffffffffffffffffffffffffffffffffffffffffffffffffffffffffff00001661ffff83169081179091556040519081527f6b5c342391f543846fce47a925e7eba910f7bec232b08633308ca93fdd0fdf0d906020016106ef565b6000828152600360205260408120610aa9908361133d565b9392505050565b60008181526003602052604081206105f890611349565b600082815260026020526040902060010154610ae281611286565b61071f83836112b2565b60007f00000000000000000000000000000000000000000000000000000000000000008383604051602001610b4492919073ffffffffffffffffffffffffffffffffffffffff92831681529116602082015260400190565b604080517fffffffffffffffffffffffffffffffffffffffffffffffffffffffffffffffe0818403018152908290528051602091820120610c08939290917f068df6f5c9382541ae6c731725bbe76306f37aba28615220f20ddec0567f041891017fff00000000000000000000000000000000000000000000000000000000000000815260609390931b7fffffffffffffffffffffffffffffffffffffffff0000000000000000000000001660018401526015830191909152603582015260550190565b604080517fffffffffffffffffffffffffffffffffffffffffffffffffffffffffffffffe081840301815291905280516020909101209392505050565b60008173ffffffffffffffffffffffffffffffffffffffff168373ffffffffffffffffffffffffffffffffffffffff1603610c7f57600080fd5b6000808373ffffffffffffffffffffffffffffffffffffffff168573ffffffffffffffffffffffffffffffffffffffff1610610cbc578385610cbf565b84845b909250905073ffffffffffffffffffffffffffffffffffffffff8216610ce457600080fd5b73ffffffffffffffffffffffffffffffffffffffff828116600090815260076020908152604080832085851684529091529020541615610d2357600080fd5b60065460009073ffffffffffffffffffffffffffffffffffffffff1615610dfe5760065473ffffffffffffffffffffffffffffffffffffffff1663361c0f76610d6c8585610aec565b6040517fffffffff0000000000000000000000000000000000000000000000000000000060e084901b16815273ffffffffffffffffffffffffffffffffffffffff90911660048201526024016020604051808303816000875af1158015610dd7573d6000803e3d6000fd5b505050506040513d601f19601f82011682018060405250810190610dfb9190611c2a565b90505b6040517fd9181cd300000000000000000000000000000000000000000000000000000000815273ffffffffffffffffffffffffffffffffffffffff8281166004830152848116602483015283811660448301527f0000000000000000000000000000000000000000000000000000000000000000169063d9181cd3906064016020604051808303816000875af1158015610e9c573d6000803e3d6000fd5b505050506040513d601f19601f82011682018060405250810190610ec09190611c2a565b73ffffffffffffffffffffffffffffffffffffffff848116600081815260076020818152604080842089871680865290835281852080549789167fffffffffffffffffffffffff000000000000000000000000000000000000000098891681179091559383528185208686528352938190208054909616831790955593519081529397509290917f91ccaa7a278130b65168c3a0c8d3bcae84cf5e43704342bd3ec0b59e59c036db910160405180910390a350505092915050565b60008173ffffffffffffffffffffffffffffffffffffffff16610fb360005473ffffffffffffffffffffffffffffffffffffffff1690565b73ffffffffffffffffffffffffffffffffffffffff161480610aa95750600083815260026020908152604080832073ffffffffffffffffffffffffffffffffffffffff8616845290915290205460ff16610aa9565b611010611203565b6001600282900b121561102257600080fd5b6101f4600282900b131561103557600080fd5b6004546401000000009004600290810b9082900b0361105357600080fd5b600480547fffffffffffffffffffffffffffffffffffffffffffffffffff000000ffffffff1664010000000062ffffff841602179055604051600282900b81527f7d7979096f943139ebee59f01c077a0f0766d06c40c86d596f23ed2561547cce906020016106ef565b6110c5611203565b600180547fffffffffffffffffffffffff00000000000000000000000000000000000000001673ffffffffffffffffffffffffffffffffffffffff831690811790915561112760005473ffffffffffffffffffffffffffffffffffffffff1690565b73ffffffffffffffffffffffffffffffffffffffff167f38d16b8cac22d99fc7c124b9cd0de2d3fa1faef420bfe791d8c362d765e2270060405160405180910390a350565b60007fffffffff0000000000000000000000000000000000000000000000000000000082167f7965db0b0000000000000000000000000000000000000000000000000000000014806105f857507f01ffc9a7000000000000000000000000000000000000000000000000000000007fffffffff000000000000000000000000000000000000000000000000000000008316146105f8565b60005473ffffffffffffffffffffffffffffffffffffffff163314611284576040517f08c379a000000000000000000000000000000000000000000000000000000000815260206004820181905260248201527f4f776e61626c653a2063616c6c6572206973206e6f7420746865206f776e657260448201526064016107c5565b565b6109fd8133611353565b61129a828261140d565b600082815260036020526040902061071f9082611501565b6112bc8282611523565b600082815260036020526040902061071f90826115de565b6112dc611203565b61128460005b61130b600061130660005473ffffffffffffffffffffffffffffffffffffffff1690565b6112b2565b61131481611600565b6109fd600061133860005473ffffffffffffffffffffffffffffffffffffffff1690565b611290565b6000610aa98383611631565b60006105f8825490565b600082815260026020908152604080832073ffffffffffffffffffffffffffffffffffffffff8516845290915290205460ff166107d8576113938161165b565b61139e83602061167a565b6040516020016113af929190611c6b565b604080517fffffffffffffffffffffffffffffffffffffffffffffffffffffffffffffffe0818403018152908290527f08c379a00000000000000000000000000000000000000000000000000000000082526107c591600401611cec565b600082815260026020908152604080832073ffffffffffffffffffffffffffffffffffffffff8516845290915290205460ff166107d857600082815260026020908152604080832073ffffffffffffffffffffffffffffffffffffffff85168452909152902080547fffffffffffffffffffffffffffffffffffffffffffffffffffffffffffffff001660011790556114a33390565b73ffffffffffffffffffffffffffffffffffffffff168173ffffffffffffffffffffffffffffffffffffffff16837f2f8788117e7eff1d82e926ec794901d17c78024a50270940304540a733656f0d60405160405180910390a45050565b6000610aa98373ffffffffffffffffffffffffffffffffffffffff84166118bd565b600082815260026020908152604080832073ffffffffffffffffffffffffffffffffffffffff8516845290915290205460ff16156107d857600082815260026020908152604080832073ffffffffffffffffffffffffffffffffffffffff8516808552925280832080547fffffffffffffffffffffffffffffffffffffffffffffffffffffffffffffff0016905551339285917ff6391f5c32d9c69d2a47ea670b442974b53935d1edc7fd64eb21e047a839171b9190a45050565b6000610aa98373ffffffffffffffffffffffffffffffffffffffff841661190c565b600180547fffffffffffffffffffffffff00000000000000000000000000000000000000001690556109fd816119ff565b600082600001828154811061164857611648611d3d565b9060005260206000200154905092915050565b60606105f873ffffffffffffffffffffffffffffffffffffffff831660145b60606000611689836002611d6c565b611694906002611c04565b67ffffffffffffffff8111156116ac576116ac611d83565b6040519080825280601f01601f1916602001820160405280156116d6576020820181803683370190505b5090507f30000000000000000000000000000000000000000000000000000000000000008160008151811061170d5761170d611d3d565b60200101907effffffffffffffffffffffffffffffffffffffffffffffffffffffffffffff1916908160001a9053507f78000000000000000000000000000000000000000000000000000000000000008160018151811061177057611770611d3d565b60200101907effffffffffffffffffffffffffffffffffffffffffffffffffffffffffffff1916908160001a90535060006117ac846002611d6c565b6117b7906001611c04565b90505b6001811115611854577f303132333435363738396162636465660000000000000000000000000000000085600f16601081106117f8576117f8611d3d565b1a60f81b82828151811061180e5761180e611d3d565b60200101907effffffffffffffffffffffffffffffffffffffffffffffffffffffffffffff1916908160001a90535060049490941c9361184d81611db2565b90506117ba565b508315610aa9576040517f08c379a000000000000000000000000000000000000000000000000000000000815260206004820181905260248201527f537472696e67733a20686578206c656e67746820696e73756666696369656e7460448201526064016107c5565b6000818152600183016020526040812054611904575081546001818101845560008481526020808220909301849055845484825282860190935260409020919091556105f8565b5060006105f8565b600081815260018301602052604081205480156119f5576000611930600183611c17565b855490915060009061194490600190611c17565b90508181146119a957600086600001828154811061196457611964611d3d565b906000526020600020015490508087600001848154811061198757611987611d3d565b6000918252602080832090910192909255918252600188019052604090208390555b85548690806119ba576119ba611de7565b6001900381819060005260206000200160009055905585600101600086815260200190815260200160002060009055600193505050506105f8565b60009150506105f8565b6000805473ffffffffffffffffffffffffffffffffffffffff8381167fffffffffffffffffffffffff0000000000000000000000000000000000000000831681178455604051919092169283917f8be0079c531659141344cd1fd0a4f28419497f9722a3daafe3b4186f6b6457e09190a35050565b600060208284031215611a8657600080fd5b81357fffffffff0000000000000000000000000000000000000000000000000000000081168114610aa957600080fd5b600060208284031215611ac857600080fd5b5035919050565b73ffffffffffffffffffffffffffffffffffffffff811681146109fd57600080fd5b600060208284031215611b0357600080fd5b8135610aa981611acf565b60008060408385031215611b2157600080fd5b823591506020830135611b3381611acf565b809150509250929050565b600060208284031215611b5057600080fd5b813561ffff81168114610aa957600080fd5b60008060408385031215611b7557600080fd5b50508035926020909101359150565b60008060408385031215611b9757600080fd5b8235611ba281611acf565b91506020830135611b3381611acf565b600060208284031215611bc457600080fd5b81358060020b8114610aa957600080fd5b7f4e487b7100000000000000000000000000000000000000000000000000000000600052601160045260246000fd5b808201808211156105f8576105f8611bd5565b818103818111156105f8576105f8611bd5565b600060208284031215611c3c57600080fd5b8151610aa981611acf565b60005b83811015611c62578181015183820152602001611c4a565b50506000910152565b7f416363657373436f6e74726f6c3a206163636f756e7420000000000000000000815260008351611ca3816017850160208801611c47565b7f206973206d697373696e6720726f6c65200000000000000000000000000000006017918401918201528351611ce0816028840160208801611c47565b01602801949350505050565b6020815260008251806020840152611d0b816040850160208701611c47565b601f017fffffffffffffffffffffffffffffffffffffffffffffffffffffffffffffffe0169190910160400192915050565b7f4e487b7100000000000000000000000000000000000000000000000000000000600052603260045260246000fd5b80820281158282048414176105f8576105f8611bd5565b7f4e487b7100000000000000000000000000000000000000000000000000000000600052604160045260246000fd5b600081611dc157611dc1611bd5565b507fffffffffffffffffffffffffffffffffffffffffffffffffffffffffffffffff0190565b7f4e487b7100000000000000000000000000000000000000000000000000000000600052603160045260246000fdfea164736f6c6343000814000a60a060405234801561001057600080fd5b5060405161138938038061138983398101604081905261002f91610058565b600280546001600160a01b0319166001600160a01b039290921691909117905533608052610088565b60006020828403121561006a57600080fd5b81516001600160a01b038116811461008157600080fd5b9392505050565b6080516112d16100b8600039600081816104db015281816107f00152818161096c0152610a1e01526112d16000f3fe608060405234801561001057600080fd5b50600436106101005760003560e01c8063ad6129ac11610097578063d9fb435311610066578063d9fb4353146102a8578063dfadc794146102bb578063f3fef3a3146102ce578063ff3c43e1146102e157600080fd5b8063ad6129ac1461024e578063b5f680ae14610256578063c53b3fbe14610269578063d17bc783146102a057600080fd5b806350eea0c8116100d357806350eea0c8146101b957806362744405146101cc5780639d754dde146102085780639f856b8d1461022857600080fd5b80631de4161314610105578063371abc951461013f5780634738761c1461018457806348a50fcf146101a4575b600080fd5b61012c7fb77a63f119f4dc2174dc6c76fc1a1565fa4f2b0dde50ed5c0465471cd9b331f681565b6040519081526020015b60405180910390f35b60005461015f9073ffffffffffffffffffffffffffffffffffffffff1681565b60405173ffffffffffffffffffffffffffffffffffffffff9091168152602001610136565b60015461015f9073ffffffffffffffffffffffffffffffffffffffff1681565b6101b76101b2366004611105565b6102f4565b005b6101b76101c7366004611105565b6103b2565b6000546101f59077010000000000000000000000000000000000000000000000900461ffff1681565b60405161ffff9091168152602001610136565b60025461015f9073ffffffffffffffffffffffffffffffffffffffff1681565b6000546101f59074010000000000000000000000000000000000000000900461ffff1681565b6101b7610449565b6101b7610264366004611105565b6104d9565b60005461029090760100000000000000000000000000000000000000000000900460ff1681565b6040519015158152602001610136565b6101b7610632565b6101b76102b6366004611122565b6106a7565b6101b76102c9366004611146565b61077b565b6101b76102dc3660046111bb565b6108f7565b6101b76102ef366004611122565b610a1c565b60025473ffffffffffffffffffffffffffffffffffffffff16331461031857600080fd5b73ffffffffffffffffffffffffffffffffffffffff811661033857600080fd5b600180547fffffffffffffffffffffffff00000000000000000000000000000000000000001673ffffffffffffffffffffffffffffffffffffffff83169081179091556040519081527f34d1b5ef1c1c2c03a5000b91bef5c465790244c6751c794e5b45bed7657c38fd906020015b60405180910390a150565b60025473ffffffffffffffffffffffffffffffffffffffff1633146103d657600080fd5b600380547fffffffffffffffffffffffff00000000000000000000000000000000000000001673ffffffffffffffffffffffffffffffffffffffff83169081179091556040519081527fab6918ba7303f2f81e46e324b5f34af4bda562577c1da710e2034980fee1e82a906020016103a7565b60035473ffffffffffffffffffffffffffffffffffffffff16331461046d57600080fd5b60028054337fffffffffffffffffffffffff000000000000000000000000000000000000000091821681179092556003805490911690556040519081527fecf97a11fb2f2bcc38d1b6881865ecc04405af2d8b953004c79b3ab398732d029060200160405180910390a1565b7f000000000000000000000000000000000000000000000000000000000000000073ffffffffffffffffffffffffffffffffffffffff16638da5cb5b6040518163ffffffff1660e01b8152600401602060405180830381865afa158015610544573d6000803e3d6000fd5b505050506040513d601f19601f8201168201806040525081019061056891906111e7565b73ffffffffffffffffffffffffffffffffffffffff163373ffffffffffffffffffffffffffffffffffffffff161461059f57600080fd5b73ffffffffffffffffffffffffffffffffffffffff81166105bf57600080fd5b600080547fffffffffffffffffffffffff00000000000000000000000000000000000000001673ffffffffffffffffffffffffffffffffffffffff83169081179091556040519081527f2f4db788b994a5908051d68a2340153f49870447185a244d2326861e60cc4186906020016103a7565b60025473ffffffffffffffffffffffffffffffffffffffff16331461065657600080fd5b600080547fffffffffffffff000000ffffffffffffffffffffffffffffffffffffffffffff1681556040517f9f4bbade0736edbd2ec12c598bdac4573af13a3b57820ae4c7da5c61703eaaff9190a1565b60025473ffffffffffffffffffffffffffffffffffffffff1633146106cb57600080fd5b6103e861ffff821611156106de57600080fd5b6000805461ffff831677010000000000000000000000000000000000000000000000027fffffffffffffff000000ffffffffffffffffffffffffffffffffffffffffffff909116177601000000000000000000000000000000000000000000001790556040517f2d6ac59d6da98f80c7ea481d17c670ea310b000fff5cf1732d94d93652dd25b7906103a790839061ffff91909116815260200190565b60025473ffffffffffffffffffffffffffffffffffffffff1633148061087057506040517fe8ae2b690000000000000000000000000000000000000000000000000000000081527fb77a63f119f4dc2174dc6c76fc1a1565fa4f2b0dde50ed5c0465471cd9b331f660048201523360248201527f000000000000000000000000000000000000000000000000000000000000000073ffffffffffffffffffffffffffffffffffffffff169063e8ae2b6990604401602060405180830381865afa15801561084c573d6000803e3d6000fd5b505050506040513d601f19601f820116820180604052508101906108709190611204565b61087957600080fd5b8060008080610886610c97565b92509250925060005b848110156108ee576108e68787838181106108ac576108ac611226565b6108c29260206040909202019081019150611105565b838989858181106108d5576108d5611226565b905060400201602001358787610dc7565b60010161088f565b50505050505050565b60025473ffffffffffffffffffffffffffffffffffffffff163314806109ec57506040517fe8ae2b690000000000000000000000000000000000000000000000000000000081527fb77a63f119f4dc2174dc6c76fc1a1565fa4f2b0dde50ed5c0465471cd9b331f660048201523360248201527f000000000000000000000000000000000000000000000000000000000000000073ffffffffffffffffffffffffffffffffffffffff169063e8ae2b6990604401602060405180830381865afa1580156109c8573d6000803e3d6000fd5b505050506040513d601f19601f820116820180604052508101906109ec9190611204565b6109f557600080fd5b6000806000610a02610c97565b925092509250610a158582868686610dc7565b5050505050565b7f000000000000000000000000000000000000000000000000000000000000000073ffffffffffffffffffffffffffffffffffffffff16638da5cb5b6040518163ffffffff1660e01b8152600401602060405180830381865afa158015610a87573d6000803e3d6000fd5b505050506040513d601f19601f82011682018060405250810190610aab91906111e7565b73ffffffffffffffffffffffffffffffffffffffff163373ffffffffffffffffffffffffffffffffffffffff1614610ae257600080fd5b600054760100000000000000000000000000000000000000000000900460ff16610b6d576040517f08c379a000000000000000000000000000000000000000000000000000000000815260206004820152600c60248201527f6e6f742070726f706f736564000000000000000000000000000000000000000060448201526064015b60405180910390fd5b60005461ffff828116770100000000000000000000000000000000000000000000009092041614610bfa576040517f08c379a000000000000000000000000000000000000000000000000000000000815260206004820152600f60248201527f696e76616c6964206e65772066656500000000000000000000000000000000006044820152606401610b64565b600080547fffffffffffffff0000000000ffffffffffffffffffffffffffffffffffffffff167401000000000000000000000000000000000000000061ffff84169081027fffffffffffffff000000ffffffffffffffffffffffffffffffffffffffffffff16919091179091556040519081527fda1e1a9a6410acc0398b3b64e0c0110b8df57e29bfe69a419cdd9ae12718c307906020016103a7565b6000805474010000000000000000000000000000000000000000900461ffff1690808215610d415760015473ffffffffffffffffffffffffffffffffffffffff16915081610d41576040517f08c379a000000000000000000000000000000000000000000000000000000000815260206004820152601c60248201527f696e76616c696420616c676562726120666565207265636569766572000000006044820152606401610b64565b5060005473ffffffffffffffffffffffffffffffffffffffff1680610dc2576040517f08c379a000000000000000000000000000000000000000000000000000000000815260206004820152601060248201527f696e76616c6964207265636569766572000000000000000000000000000000006044820152606401610b64565b909192565b8261ffff831615610e67576000610de58261ffff86166103e8610ee1565b9050610df18183611255565b9150610dfe878483610f80565b8273ffffffffffffffffffffffffffffffffffffffff168773ffffffffffffffffffffffffffffffffffffffff167fb7ee7fc9dacb957cfa93faeb8ca1826292de295e18e287a347dddfde7ab48b4083604051610e5d91815260200190565b60405180910390a3505b610e72868683610f80565b8473ffffffffffffffffffffffffffffffffffffffff168673ffffffffffffffffffffffffffffffffffffffff167f7a629b77ef27ad337abe438773206187960a90abfb43607826bef77d650e84b983604051610ed191815260200190565b60405180910390a3505050505050565b6000831580610f0257505082820282848281610eff57610eff611295565b04145b15610f235760008211610f1457600080fd5b81810490829006151501610f79565b610f2e848484611029565b905060008280610f4057610f40611295565b8486091115610f79577fffffffffffffffffffffffffffffffffffffffffffffffffffffffffffffffff8110610f7557600080fd5b6001015b9392505050565b60006040517fa9059cbb0000000000000000000000000000000000000000000000000000000060005273ffffffffffffffffffffffffffffffffffffffff841660045282602452602060006044600080895af19150813d1560203d146001600051141617169150806040525080611023576040517fe465903e00000000000000000000000000000000000000000000000000000000815260040160405180910390fd5b50505050565b6000838302817fffffffffffffffffffffffffffffffffffffffffffffffffffffffffffffffff8587098281108382030391505080841161106957600080fd5b8060000361107c57508290049050610f79565b8385870960008581038616958690049560026003880281188089028203028089028203028089028203028089028203028089028203028089029091030291819003819004600101858411909403939093029190930391909104170290509392505050565b73ffffffffffffffffffffffffffffffffffffffff8116811461110257600080fd5b50565b60006020828403121561111757600080fd5b8135610f79816110e0565b60006020828403121561113457600080fd5b813561ffff81168114610f7957600080fd5b6000806020838503121561115957600080fd5b823567ffffffffffffffff8082111561117157600080fd5b818501915085601f83011261118557600080fd5b81358181111561119457600080fd5b8660208260061b85010111156111a957600080fd5b60209290920196919550909350505050565b600080604083850312156111ce57600080fd5b82356111d9816110e0565b946020939093013593505050565b6000602082840312156111f957600080fd5b8151610f79816110e0565b60006020828403121561121657600080fd5b81518015158114610f7957600080fd5b7f4e487b7100000000000000000000000000000000000000000000000000000000600052603260045260246000fd5b8181038181111561128f577f4e487b7100000000000000000000000000000000000000000000000000000000600052601160045260246000fd5b92915050565b7f4e487b7100000000000000000000000000000000000000000000000000000000600052601260045260246000fdfea164736f6c6343000814000a",
  "linkReferences": {},
  "deployedLinkReferences": {}
}