{
  "_format": "hh-sol-artifact-1",
  "contractName": "AlgebraPool",
  "sourceName": "contracts/AlgebraPool.sol",
  "abi": [
    {
      "inputs": [],
      "name": "alreadyInitialized",
      "type": "error"
    },
    {
      "inputs": [],
      "name": "arithmeticError",
      "type": "error"
    },
    {
      "inputs": [],
      "name": "bottomTickLowerThanMIN",
      "type": "error"
    },
    {
      "inputs": [],
      "name": "dynamicFeeActive",
      "type": "error"
    },
    {
      "inputs": [],
      "name": "dynamicFeeDisabled",
      "type": "error"
    },
    {
      "inputs": [],
      "name": "flashInsufficientPaid0",
      "type": "error"
    },
    {
      "inputs": [],
      "name": "flashInsufficientPaid1",
      "type": "error"
    },
    {
      "inputs": [],
      "name": "insufficientInputAmount",
      "type": "error"
    },
    {
      "inputs": [],
      "name": "invalidAmountRequired",
      "type": "error"
    },
    {
      "inputs": [
        {
          "internalType": "bytes4",
          "name": "selector",
          "type": "bytes4"
        }
      ],
      "name": "invalidHookResponse",
      "type": "error"
    },
    {
      "inputs": [],
      "name": "invalidLimitSqrtPrice",
      "type": "error"
    },
    {
      "inputs": [],
      "name": "invalidNewCommunityFee",
      "type": "error"
    },
    {
      "inputs": [],
      "name": "invalidNewTickSpacing",
      "type": "error"
    },
    {
      "inputs": [],
      "name": "liquidityAdd",
      "type": "error"
    },
    {
      "inputs": [],
      "name": "liquidityOverflow",
      "type": "error"
    },
    {
      "inputs": [],
      "name": "liquiditySub",
      "type": "error"
    },
    {
      "inputs": [],
      "name": "locked",
      "type": "error"
    },
    {
      "inputs": [],
      "name": "notAllowed",
      "type": "error"
    },
    {
      "inputs": [],
      "name": "onlyFarming",
      "type": "error"
    },
    {
      "inputs": [],
      "name": "priceOutOfRange",
      "type": "error"
    },
    {
      "inputs": [],
      "name": "tickInvalidLinks",
      "type": "error"
    },
    {
      "inputs": [],
      "name": "tickIsNotInitialized",
      "type": "error"
    },
    {
      "inputs": [],
      "name": "tickIsNotSpaced",
      "type": "error"
    },
    {
      "inputs": [],
      "name": "tickOutOfRange",
      "type": "error"
    },
    {
      "inputs": [],
      "name": "topTickAboveMAX",
      "type": "error"
    },
    {
      "inputs": [],
      "name": "topTickLowerOrEqBottomTick",
      "type": "error"
    },
    {
      "inputs": [],
      "name": "transferFailed",
      "type": "error"
    },
    {
      "inputs": [],
      "name": "zeroAmountRequired",
      "type": "error"
    },
    {
      "inputs": [],
      "name": "zeroLiquidityActual",
      "type": "error"
    },
    {
      "inputs": [],
      "name": "zeroLiquidityDesired",
      "type": "error"
    },
    {
      "anonymous": false,
      "inputs": [
        {
          "indexed": true,
          "internalType": "address",
          "name": "owner",
          "type": "address"
        },
        {
          "indexed": true,
          "internalType": "int24",
          "name": "bottomTick",
          "type": "int24"
        },
        {
          "indexed": true,
          "internalType": "int24",
          "name": "topTick",
          "type": "int24"
        },
        {
          "indexed": false,
          "internalType": "uint128",
          "name": "liquidityAmount",
          "type": "uint128"
        },
        {
          "indexed": false,
          "internalType": "uint256",
          "name": "amount0",
          "type": "uint256"
        },
        {
          "indexed": false,
          "internalType": "uint256",
          "name": "amount1",
          "type": "uint256"
        }
      ],
      "name": "Burn",
      "type": "event"
    },
    {
      "anonymous": false,
      "inputs": [
        {
          "indexed": true,
          "internalType": "address",
          "name": "owner",
          "type": "address"
        },
        {
          "indexed": false,
          "internalType": "address",
          "name": "recipient",
          "type": "address"
        },
        {
          "indexed": true,
          "internalType": "int24",
          "name": "bottomTick",
          "type": "int24"
        },
        {
          "indexed": true,
          "internalType": "int24",
          "name": "topTick",
          "type": "int24"
        },
        {
          "indexed": false,
          "internalType": "uint128",
          "name": "amount0",
          "type": "uint128"
        },
        {
          "indexed": false,
          "internalType": "uint128",
          "name": "amount1",
          "type": "uint128"
        }
      ],
      "name": "Collect",
      "type": "event"
    },
    {
      "anonymous": false,
      "inputs": [
        {
          "indexed": false,
          "internalType": "uint16",
          "name": "communityFeeNew",
          "type": "uint16"
        }
      ],
      "name": "CommunityFee",
      "type": "event"
    },
    {
      "anonymous": false,
      "inputs": [
        {
          "indexed": false,
          "internalType": "uint16",
          "name": "fee",
          "type": "uint16"
        }
      ],
      "name": "Fee",
      "type": "event"
    },
    {
      "anonymous": false,
      "inputs": [
        {
          "indexed": true,
          "internalType": "address",
          "name": "sender",
          "type": "address"
        },
        {
          "indexed": true,
          "internalType": "address",
          "name": "recipient",
          "type": "address"
        },
        {
          "indexed": false,
          "internalType": "uint256",
          "name": "amount0",
          "type": "uint256"
        },
        {
          "indexed": false,
          "internalType": "uint256",
          "name": "amount1",
          "type": "uint256"
        },
        {
          "indexed": false,
          "internalType": "uint256",
          "name": "paid0",
          "type": "uint256"
        },
        {
          "indexed": false,
          "internalType": "uint256",
          "name": "paid1",
          "type": "uint256"
        }
      ],
      "name": "Flash",
      "type": "event"
    },
    {
      "anonymous": false,
      "inputs": [
        {
          "indexed": false,
          "internalType": "uint160",
          "name": "price",
          "type": "uint160"
        },
        {
          "indexed": false,
          "internalType": "int24",
          "name": "tick",
          "type": "int24"
        }
      ],
      "name": "Initialize",
      "type": "event"
    },
    {
      "anonymous": false,
      "inputs": [
        {
          "indexed": false,
          "internalType": "address",
          "name": "sender",
          "type": "address"
        },
        {
          "indexed": true,
          "internalType": "address",
          "name": "owner",
          "type": "address"
        },
        {
          "indexed": true,
          "internalType": "int24",
          "name": "bottomTick",
          "type": "int24"
        },
        {
          "indexed": true,
          "internalType": "int24",
          "name": "topTick",
          "type": "int24"
        },
        {
          "indexed": false,
          "internalType": "uint128",
          "name": "liquidityAmount",
          "type": "uint128"
        },
        {
          "indexed": false,
          "internalType": "uint256",
          "name": "amount0",
          "type": "uint256"
        },
        {
          "indexed": false,
          "internalType": "uint256",
          "name": "amount1",
          "type": "uint256"
        }
      ],
      "name": "Mint",
      "type": "event"
    },
    {
      "anonymous": false,
      "inputs": [
        {
          "indexed": false,
          "internalType": "address",
          "name": "newPluginAddress",
          "type": "address"
        }
      ],
      "name": "Plugin",
      "type": "event"
    },
    {
      "anonymous": false,
      "inputs": [
        {
          "indexed": false,
          "internalType": "uint8",
          "name": "newPluginConfig",
          "type": "uint8"
        }
      ],
      "name": "PluginConfig",
      "type": "event"
    },
    {
      "anonymous": false,
      "inputs": [
        {
          "indexed": true,
          "internalType": "address",
          "name": "sender",
          "type": "address"
        },
        {
          "indexed": true,
          "internalType": "address",
          "name": "recipient",
          "type": "address"
        },
        {
          "indexed": false,
          "internalType": "int256",
          "name": "amount0",
          "type": "int256"
        },
        {
          "indexed": false,
          "internalType": "int256",
          "name": "amount1",
          "type": "int256"
        },
        {
          "indexed": false,
          "internalType": "uint160",
          "name": "price",
          "type": "uint160"
        },
        {
          "indexed": false,
          "internalType": "uint128",
          "name": "liquidity",
          "type": "uint128"
        },
        {
          "indexed": false,
          "internalType": "int24",
          "name": "tick",
          "type": "int24"
        }
      ],
      "name": "Swap",
      "type": "event"
    },
    {
      "anonymous": false,
      "inputs": [
        {
          "indexed": false,
          "internalType": "int24",
          "name": "newTickSpacing",
          "type": "int24"
        }
      ],
      "name": "TickSpacing",
      "type": "event"
    },
    {
      "inputs": [
        {
          "internalType": "int24",
          "name": "bottomTick",
          "type": "int24"
        },
        {
          "internalType": "int24",
          "name": "topTick",
          "type": "int24"
        },
        {
          "internalType": "uint128",
          "name": "amount",
          "type": "uint128"
        },
        {
          "internalType": "bytes",
          "name": "data",
          "type": "bytes"
        }
      ],
      "name": "burn",
      "outputs": [
        {
          "internalType": "uint256",
          "name": "amount0",
          "type": "uint256"
        },
        {
          "internalType": "uint256",
          "name": "amount1",
          "type": "uint256"
        }
      ],
      "stateMutability": "nonpayable",
      "type": "function"
    },
    {
      "inputs": [
        {
          "internalType": "address",
          "name": "recipient",
          "type": "address"
        },
        {
          "internalType": "int24",
          "name": "bottomTick",
          "type": "int24"
        },
        {
          "internalType": "int24",
          "name": "topTick",
          "type": "int24"
        },
        {
          "internalType": "uint128",
          "name": "amount0Requested",
          "type": "uint128"
        },
        {
          "internalType": "uint128",
          "name": "amount1Requested",
          "type": "uint128"
        }
      ],
      "name": "collect",
      "outputs": [
        {
          "internalType": "uint128",
          "name": "amount0",
          "type": "uint128"
        },
        {
          "internalType": "uint128",
          "name": "amount1",
          "type": "uint128"
        }
      ],
      "stateMutability": "nonpayable",
      "type": "function"
    },
    {
      "inputs": [],
      "name": "communityFeeLastTimestamp",
      "outputs": [
        {
          "internalType": "uint32",
          "name": "",
          "type": "uint32"
        }
      ],
      "stateMutability": "view",
      "type": "function"
    },
    {
      "inputs": [],
      "name": "communityVault",
      "outputs": [
        {
          "internalType": "address",
          "name": "",
          "type": "address"
        }
      ],
      "stateMutability": "view",
      "type": "function"
    },
    {
      "inputs": [],
      "name": "factory",
      "outputs": [
        {
          "internalType": "address",
          "name": "",
          "type": "address"
        }
      ],
      "stateMutability": "view",
      "type": "function"
    },
    {
      "inputs": [],
      "name": "fee",
      "outputs": [
        {
          "internalType": "uint16",
          "name": "currentFee",
          "type": "uint16"
        }
      ],
      "stateMutability": "view",
      "type": "function"
    },
    {
      "inputs": [
        {
          "internalType": "address",
          "name": "recipient",
          "type": "address"
        },
        {
          "internalType": "uint256",
          "name": "amount0",
          "type": "uint256"
        },
        {
          "internalType": "uint256",
          "name": "amount1",
          "type": "uint256"
        },
        {
          "internalType": "bytes",
          "name": "data",
          "type": "bytes"
        }
      ],
      "name": "flash",
      "outputs": [],
      "stateMutability": "nonpayable",
      "type": "function"
    },
    {
      "inputs": [],
      "name": "getCommunityFeePending",
      "outputs": [
        {
          "internalType": "uint128",
          "name": "",
          "type": "uint128"
        },
        {
          "internalType": "uint128",
          "name": "",
          "type": "uint128"
        }
      ],
      "stateMutability": "view",
      "type": "function"
    },
    {
      "inputs": [],
      "name": "getReserves",
      "outputs": [
        {
          "internalType": "uint128",
          "name": "",
          "type": "uint128"
        },
        {
          "internalType": "uint128",
          "name": "",
          "type": "uint128"
        }
      ],
      "stateMutability": "view",
      "type": "function"
    },
    {
      "inputs": [],
      "name": "globalState",
      "outputs": [
        {
          "internalType": "uint160",
          "name": "price",
          "type": "uint160"
        },
        {
          "internalType": "int24",
          "name": "tick",
          "type": "int24"
        },
        {
          "internalType": "uint16",
          "name": "fee",
          "type": "uint16"
        },
        {
          "internalType": "uint8",
          "name": "pluginConfig",
          "type": "uint8"
        },
        {
          "internalType": "uint16",
          "name": "communityFee",
          "type": "uint16"
        },
        {
          "internalType": "bool",
          "name": "unlocked",
          "type": "bool"
        }
      ],
      "stateMutability": "view",
      "type": "function"
    },
    {
      "inputs": [
        {
          "internalType": "uint160",
          "name": "initialPrice",
          "type": "uint160"
        }
      ],
      "name": "initialize",
      "outputs": [],
      "stateMutability": "nonpayable",
      "type": "function"
    },
    {
      "inputs": [],
      "name": "liquidity",
      "outputs": [
        {
          "internalType": "uint128",
          "name": "",
          "type": "uint128"
        }
      ],
      "stateMutability": "view",
      "type": "function"
    },
    {
      "inputs": [],
      "name": "maxLiquidityPerTick",
      "outputs": [
        {
          "internalType": "uint128",
          "name": "",
          "type": "uint128"
        }
      ],
      "stateMutability": "pure",
      "type": "function"
    },
    {
      "inputs": [
        {
          "internalType": "address",
          "name": "leftoversRecipient",
          "type": "address"
        },
        {
          "internalType": "address",
          "name": "recipient",
          "type": "address"
        },
        {
          "internalType": "int24",
          "name": "bottomTick",
          "type": "int24"
        },
        {
          "internalType": "int24",
          "name": "topTick",
          "type": "int24"
        },
        {
          "internalType": "uint128",
          "name": "liquidityDesired",
          "type": "uint128"
        },
        {
          "internalType": "bytes",
          "name": "data",
          "type": "bytes"
        }
      ],
      "name": "mint",
      "outputs": [
        {
          "internalType": "uint256",
          "name": "amount0",
          "type": "uint256"
        },
        {
          "internalType": "uint256",
          "name": "amount1",
          "type": "uint256"
        },
        {
          "internalType": "uint128",
          "name": "liquidityActual",
          "type": "uint128"
        }
      ],
      "stateMutability": "nonpayable",
      "type": "function"
    },
    {
      "inputs": [],
      "name": "nextTickGlobal",
      "outputs": [
        {
          "internalType": "int24",
          "name": "",
          "type": "int24"
        }
      ],
      "stateMutability": "view",
      "type": "function"
    },
    {
      "inputs": [],
      "name": "plugin",
      "outputs": [
        {
          "internalType": "address",
          "name": "",
          "type": "address"
        }
      ],
      "stateMutability": "view",
      "type": "function"
    },
    {
      "inputs": [
        {
          "internalType": "bytes32",
          "name": "",
          "type": "bytes32"
        }
      ],
      "name": "positions",
      "outputs": [
        {
          "internalType": "uint256",
          "name": "liquidity",
          "type": "uint256"
        },
        {
          "internalType": "uint256",
          "name": "innerFeeGrowth0Token",
          "type": "uint256"
        },
        {
          "internalType": "uint256",
          "name": "innerFeeGrowth1Token",
          "type": "uint256"
        },
        {
          "internalType": "uint128",
          "name": "fees0",
          "type": "uint128"
        },
        {
          "internalType": "uint128",
          "name": "fees1",
          "type": "uint128"
        }
      ],
      "stateMutability": "view",
      "type": "function"
    },
    {
      "inputs": [],
      "name": "prevTickGlobal",
      "outputs": [
        {
          "internalType": "int24",
          "name": "",
          "type": "int24"
        }
      ],
      "stateMutability": "view",
      "type": "function"
    },
    {
      "inputs": [
        {
          "internalType": "uint16",
          "name": "newCommunityFee",
          "type": "uint16"
        }
      ],
      "name": "setCommunityFee",
      "outputs": [],
      "stateMutability": "nonpayable",
      "type": "function"
    },
    {
      "inputs": [
        {
          "internalType": "uint16",
          "name": "newFee",
          "type": "uint16"
        }
      ],
      "name": "setFee",
      "outputs": [],
      "stateMutability": "nonpayable",
      "type": "function"
    },
    {
      "inputs": [
        {
          "internalType": "address",
          "name": "newPluginAddress",
          "type": "address"
        }
      ],
      "name": "setPlugin",
      "outputs": [],
      "stateMutability": "nonpayable",
      "type": "function"
    },
    {
      "inputs": [
        {
          "internalType": "uint8",
          "name": "newConfig",
          "type": "uint8"
        }
      ],
      "name": "setPluginConfig",
      "outputs": [],
      "stateMutability": "nonpayable",
      "type": "function"
    },
    {
      "inputs": [
        {
          "internalType": "int24",
          "name": "newTickSpacing",
          "type": "int24"
        }
      ],
      "name": "setTickSpacing",
      "outputs": [],
      "stateMutability": "nonpayable",
      "type": "function"
    },
    {
      "inputs": [
        {
          "internalType": "address",
          "name": "recipient",
          "type": "address"
        },
        {
          "internalType": "bool",
          "name": "zeroToOne",
          "type": "bool"
        },
        {
          "internalType": "int256",
          "name": "amountRequired",
          "type": "int256"
        },
        {
          "internalType": "uint160",
          "name": "limitSqrtPrice",
          "type": "uint160"
        },
        {
          "internalType": "bytes",
          "name": "data",
          "type": "bytes"
        }
      ],
      "name": "swap",
      "outputs": [
        {
          "internalType": "int256",
          "name": "amount0",
          "type": "int256"
        },
        {
          "internalType": "int256",
          "name": "amount1",
          "type": "int256"
        }
      ],
      "stateMutability": "nonpayable",
      "type": "function"
    },
    {
      "inputs": [
        {
          "internalType": "address",
          "name": "leftoversRecipient",
          "type": "address"
        },
        {
          "internalType": "address",
          "name": "recipient",
          "type": "address"
        },
        {
          "internalType": "bool",
          "name": "zeroToOne",
          "type": "bool"
        },
        {
          "internalType": "int256",
          "name": "amountToSell",
          "type": "int256"
        },
        {
          "internalType": "uint160",
          "name": "limitSqrtPrice",
          "type": "uint160"
        },
        {
          "internalType": "bytes",
          "name": "data",
          "type": "bytes"
        }
      ],
      "name": "swapWithPaymentInAdvance",
      "outputs": [
        {
          "internalType": "int256",
          "name": "amount0",
          "type": "int256"
        },
        {
          "internalType": "int256",
          "name": "amount1",
          "type": "int256"
        }
      ],
      "stateMutability": "nonpayable",
      "type": "function"
    },
    {
      "inputs": [],
      "name": "tickSpacing",
      "outputs": [
        {
          "internalType": "int24",
          "name": "",
          "type": "int24"
        }
      ],
      "stateMutability": "view",
      "type": "function"
    },
    {
      "inputs": [
        {
          "internalType": "int16",
          "name": "",
          "type": "int16"
        }
      ],
      "name": "tickTable",
      "outputs": [
        {
          "internalType": "uint256",
          "name": "",
          "type": "uint256"
        }
      ],
      "stateMutability": "view",
      "type": "function"
    },
    {
      "inputs": [
        {
          "internalType": "int24",
          "name": "",
          "type": "int24"
        }
      ],
      "name": "ticks",
      "outputs": [
        {
          "internalType": "uint256",
          "name": "liquidityTotal",
          "type": "uint256"
        },
        {
          "internalType": "int128",
          "name": "liquidityDelta",
          "type": "int128"
        },
        {
          "internalType": "int24",
          "name": "prevTick",
          "type": "int24"
        },
        {
          "internalType": "int24",
          "name": "nextTick",
          "type": "int24"
        },
        {
          "internalType": "uint256",
          "name": "outerFeeGrowth0Token",
          "type": "uint256"
        },
        {
          "internalType": "uint256",
          "name": "outerFeeGrowth1Token",
          "type": "uint256"
        }
      ],
      "stateMutability": "view",
      "type": "function"
    },
    {
      "inputs": [],
      "name": "token0",
      "outputs": [
        {
          "internalType": "address",
          "name": "",
          "type": "address"
        }
      ],
      "stateMutability": "view",
      "type": "function"
    },
    {
      "inputs": [],
      "name": "token1",
      "outputs": [
        {
          "internalType": "address",
          "name": "",
          "type": "address"
        }
      ],
      "stateMutability": "view",
      "type": "function"
    },
    {
      "inputs": [],
      "name": "totalFeeGrowth0Token",
      "outputs": [
        {
          "internalType": "uint256",
          "name": "",
          "type": "uint256"
        }
      ],
      "stateMutability": "view",
      "type": "function"
    },
    {
      "inputs": [],
      "name": "totalFeeGrowth1Token",
      "outputs": [
        {
          "internalType": "uint256",
          "name": "",
          "type": "uint256"
        }
      ],
      "stateMutability": "view",
      "type": "function"
    }
  ],
  "bytecode": "0x6101006040523480156200001257600080fd5b506200001d620000b1565b6001600160a01b0390811660c05290811660a05290811660e052908116608052600580546001600160a01b03191692909116919091179055620d89e719620000658162000225565b6007805462ffffff93841663010000000265ffffffffffff1990911693909216929092171790556002805460ff60e01b1916600160e01b179055620000ab60036200012f565b620002e3565b6000806000806000336001600160a01b03166304889e266040518163ffffffff1660e01b815260040160a060405180830381865afa158015620000f8573d6000803e3d6000fd5b505050506040513d601f19601f820116820180604052508101906200011e919062000273565b945094509450945094509091929394565b620d89e7196200013f8162000225565b620d89e7196000818152602085905260409020600101805465ffffffffffff60801b1916600160981b62ffffff9485160262ffffff60801b191617600160801b949093169390930291909117909155620001998162000225565b826000620001ab620d89e71962000225565b60020b60020b81526020019081526020016000206001016010846000620d89e719620001d79062000225565b60020b81526020810191909152604001600020600101805462ffffff948516600160981b0262ffffff60981b1990911617905581549383166101009190910a90810292021990921617905550565b60008160020b627fffff1981036200024d57634e487b7160e01b600052601160045260246000fd5b60000392915050565b80516001600160a01b03811681146200026e57600080fd5b919050565b600080600080600060a086880312156200028c57600080fd5b620002978662000256565b9450620002a76020870162000256565b9350620002b76040870162000256565b9250620002c76060870162000256565b9150620002d76080870162000256565b90509295509295909350565b60805160a05160c05160e051614da5620003c5600039600081816105d5015281816126ee0152818161275d01528181612a130152612a6401526000818161088b01528181610ac801528181610fff0152818161133a015281816116410152818161170301528181611a520152818161273c01528181612a430152612bad01526000818161026c01528181610b4e01528181610fbb015281816112f701528181611679015281816116cb01528181611a03015281816126cd015281816128fd01526129f20152600081816107fd01528181612d3c01526136e80152614da56000f3fe608060405234801561001057600080fd5b50600436106101f05760003560e01c80639e4e02271161010f578063d5c35a7e116100a2578063ef01df4f11610071578063ef01df4f14610977578063f085a6101461098a578063f30dba93146109aa578063f637731d14610a4457600080fd5b8063d5c35a7e146108ad578063ddca3f43146108ba578063e76c01e4146108d9578063ecdecf421461096e57600080fd5b8063c677e3e0116100de578063c677e3e01461081f578063cc1f97cf1461084c578063d0c93a7c14610872578063d21220a71461088657600080fd5b80639e4e022714610669578063aafe29c014610706578063bca57f81146107d8578063c45a0155146107f857600080fd5b8063490e6cbc116101875780636378ae44116101565780636378ae44146105f757806370cf754a146106125780637bd78025146106265780638e0055531461064857600080fd5b8063490e6cbc1461046b5780634f1eb3d8146104f5578063514ea4bf1461054657806353e97868146105d057600080fd5b8063128acb08116101c3578063128acb08146102d35780631a68650214610380578063240a875a146103b65780633b3bc70e146103d957600080fd5b8063050a4d21146101f55780630902f1ac146102205780630dfe1681146102675780631131b110146102aa575b600080fd5b600754610209906301000000900460020b81565b6040805160029290920b8252519081900360200190f35b600a546001600160801b0380821691600160801b9004165b60405180836001600160801b03168152602001826001600160801b031681526020019250505060405180910390f35b61028e7f000000000000000000000000000000000000000000000000000000000000000081565b604080516001600160a01b039092168252519081900360200190f35b6004546102ba9063ffffffff1681565b6040805163ffffffff9092168252519081900360200190f35b610367600480360360a08110156102e957600080fd5b6001600160a01b0382358116926020810135151592604082013592606083013516919081019060a081016080820135600160201b81111561032957600080fd5b82018360208201111561033b57600080fd5b803590602001918460018302840111600160201b8311171561035c57600080fd5b509092509050610a6a565b6040805192835260208301919091528051918290030190f35b60075461039a90600160301b90046001600160801b031681565b604080516001600160801b039092168252519081900360200190f35b6103d7600480360360208110156103cc57600080fd5b503561ffff16610c6a565b005b610367600480360360808110156103ef57600080fd5b8135600290810b92602081013590910b916001600160801b036040830135169190810190608081016060820135600160201b81111561042d57600080fd5b82018360208201111561043f57600080fd5b803590602001918460018302840111600160201b8311171561046057600080fd5b509092509050610d19565b6103d76004803603608081101561048157600080fd5b6001600160a01b038235169160208101359160408201359190810190608081016060820135600160201b8111156104b757600080fd5b8201836020820111156104c957600080fd5b803590602001918460018302840111600160201b831117156104ea57600080fd5b509092509050610e9c565b610238600480360360a081101561050b57600080fd5b506001600160a01b03813516906020810135600290810b91604081013590910b906001600160801b036060820135811691608001351661124b565b6105996004803603602081101561055c57600080fd5b50600960205235600090815260409020805460018201546002830154600390930154919290916001600160801b0380821691600160801b90041685565b604080519586526020860194909452848401929092526001600160801b039081166060850152166080830152519081900360a00190f35b61028e7f000000000000000000000000000000000000000000000000000000000000000081565b61060060005481565b60408051918252519081900360200190f35b6d09745258e83de0d0f4e400fce79961039a565b6004546001600160681b03600160201b8204811691600160881b900416610238565b6103d76004803603602081101561065e57600080fd5b503561ffff16611404565b610367600480360360c081101561067f57600080fd5b6001600160a01b0382358116926020810135821692604082013515159260608301359260808101359091169181019060c0810160a0820135600160201b8111156106c857600080fd5b8201836020820111156106da57600080fd5b803590602001918460018302840111600160201b831117156106fb57600080fd5b5090925090506114ee565b6107b1600480360360c081101561071c57600080fd5b6001600160a01b0382358116926020810135909116916040820135600290810b92606081013590910b916001600160801b03608083013516919081019060c0810160a0820135600160201b81111561077357600080fd5b82018360208201111561078557600080fd5b803590602001918460018302840111600160201b831117156107a657600080fd5b5090925090506117d4565b6040805193845260208401929092526001600160801b031682820152519081900360600190f35b6103d7600480360360208110156107ee57600080fd5b503560ff16611b48565b61028e7f000000000000000000000000000000000000000000000000000000000000000081565b6106006004803603602081101561083557600080fd5b5060066020523560010b6000908152604090205481565b6103d76004803603602081101561086257600080fd5b50356001600160a01b0316611bc3565b60075461020990600160b01b900460020b81565b61028e7f000000000000000000000000000000000000000000000000000000000000000081565b6007546102099060020b81565b6108c2611c2c565b6040805161ffff9092168252519081900360200190f35b60028054610924916001600160a01b03821691600160a01b810490910b9061ffff600160b81b820481169160ff600160c81b8204811692600160d01b83041691600160e01b90041686565b604080516001600160a01b03909716875260029590950b602087015261ffff9384168686015260ff90921660608601529091166080840152151560a0830152519081900360c00190f35b61060060015481565b60055461028e906001600160a01b031681565b6103d7600480360360208110156109a057600080fd5b503560020b611cd0565b610a08600480360360208110156109c057600080fd5b50600360208190529035600290810b600090815260409020805460018201548284015492909401549093600f81900b93600160801b8204810b93600160981b909204900b9186565b60408051968752600f9590950b6020870152600293840b868601529190920b6060850152608084019190915260a0830152519081900360c00190f35b6103d760048036036020811015610a5a57600080fd5b50356001600160a01b0316611d8c565b600080610a7d888888886000898961200d565b610a85612105565b600080600080610a968b8b8b61213e565b949a50929850909650945092509050600080610ab06126a1565b915091508c15610b40576000871215610af157610af17f00000000000000000000000000000000000000000000000000000000000000008f89600003612874565b610afd88888c8c612884565b610b056128e5565b610b0f8984614ba8565b1115610b2e57604051633ed6d50560e21b815260040160405180910390fd5b610b3b8888856000612976565b610bc1565b6000881215610b7757610b777f00000000000000000000000000000000000000000000000000000000000000008f8a600003612874565b610b8388888c8c612884565b610b8b612b95565b610b958883614ba8565b1115610bb457604051633ed6d50560e21b815260040160405180910390fd5b610bc18888600086612976565b8d6001600160a01b0316336001600160a01b03167fc42079f94a6350d7e6235f29174924f928cc2ac818eb64fed8004e115fbcca678a8a8a898b60405180868152602001858152602001846001600160a01b03168152602001836001600160801b031681526020018260020b81526020019550505050505060405180910390a3505050505050610c4f612be4565b610c5f8888888886868a8a612bf9565b965096945050505050565b610c72612105565b610c7a612cf6565b6103e861ffff82161180610c9d575060025461ffff828116600160d01b90920416145b15610cbb5760405163a709b9af60e01b815260040160405180910390fd5b6002805461ffff8316600160d01b810261ffff60d01b199092169190911790915560408051918252517f3647dccc990d4941b0b05b32527ef493a98d6187b20639ca2f9743f3b55ca5e19181900360200190a1610d16612be4565b50565b6000808686610d288282612dbe565b60016001607f1b036001600160801b0388161115610d5957604051638995290f60e01b815260040160405180910390fd5b6000610d6488614bbb565b9050610d74338b8b848b8b612e44565b610d7c612105565b610d846126a1565b50506000610d93338c8c612f13565b9050610da1818c8c85612f3f565b909650945085851715610e0b576003810154610dc79087906001600160801b0316614be1565b6003820154610de7908790600160801b90046001600160801b0316614be1565b6001600160801b039182169116600160801b026001600160801b0319161760038201555b6001600160801b0389168617851715610e7657604080516001600160801b038b16815260208101889052808201879052905160028c810b92908e900b9133917f0c396cd989a39f4459b5fa1aed6a9a8dcdbc45908acfd67e028cd568da98982c919081900360600190a45b610e7e612be4565b610e8e338c8c858a8a8e8e613061565b505050509550959350505050565b600254600160c81b900460101615610f82576005546040516346f0547760e11b80825233600483018181526001600160a01b038a81166024860152604485018a90526064850189905260a06084860190815260a48601889052610f829694959190941693638de0a8ee93928c928c928c928c928c929060c401848480828437600081840152601f19601f8201169050808301925050509750505050505050506020604051808303816000875af1158015610f5a573d6000803e3d6000fd5b505050506040513d6020811015610f7057600080fd5b50516001600160e01b0319169061315d565b610f8a612105565b600080600080610f986126a1565b909250905060008815610fe157610fb4896064620f424061319a565b9050610fe17f00000000000000000000000000000000000000000000000000000000000000008b8b612874565b6000881561102557610ff8896064620f424061319a565b90506110257f00000000000000000000000000000000000000000000000000000000000000008c8b612874565b61103182828a8a61321a565b6110396128e5565b9550856110468386614ba8565b1115611065576040516336de50ff60e11b815260040160405180910390fd5b61106d612b95565b94508461107a8285614ba8565b11156110995760405163c998149f60e01b815260040160405180910390fd5b60025495849003959483900394600160d01b900461ffff1680156110f657600087156110cf576110cc88836103e8613243565b90505b600087156110e7576110e488846103e8613243565b90505b6110f382828484612976565b50505b604080518c8152602081018c90528082018990526060810188905290516001600160a01b038e169133917fbdbdb71d7860376ba52b25a5028beea23581364a40522f6bcfb86bb1f2dca6339181900360800190a35050505050611157612be4565b600254600160c81b9004602016156112425761124263343d37ff60e01b600560009054906101000a90046001600160a01b03166001600160a01b031663343d37ff338b8b8b89898d8d6040518963ffffffff1660e01b815260040180896001600160a01b03168152602001886001600160a01b03168152602001878152602001868152602001858152602001848152602001806020018281038252848482818152602001925080828437600081840152601f19601f82011690508083019250505099505050505050505050506020604051808303816000875af1158015610f5a573d6000803e3d6000fd5b50505050505050565b600080611256612105565b6000611263338888612f13565b60038101549091506001600160801b0380821691600160801b9004811690871682101561128e578196505b806001600160801b0316866001600160801b031611156112ac578095505b6001600160801b0387871716156113ef576001600160801b0387830381168783038216600160801b026001600160801b031916176003850155879550869450851615611326576113267f00000000000000000000000000000000000000000000000000000000000000008b876001600160801b0316612874565b6001600160801b03841615611369576113697f00000000000000000000000000000000000000000000000000000000000000008b866001600160801b0316612874565b61138e856001600160801b0316600003856001600160801b0316600003600080612976565b604080516001600160a01b038c1681526001600160801b038088166020830152861681830152905160028a810b92908c900b9133917f70935338e69775456a85ddef226c395fb668b63fa0115f5f20610b388e6ca9c0919081900360600190a45b5050506113fa612be4565b9550959350505050565b600254600160c81b8104608016151590600160e01b900460ff1661143b57604051636798480960e11b815260040160405180910390fd5b6005546001600160a01b03163303611470578061146b57604051633a4528ef60e01b815260040160405180910390fd5b611497565b801561148f576040516369cdc70760e11b815260040160405180910390fd5b611497612cf6565b6002805461ffff8416600160b81b810261ffff60b81b199092169190911790915560408051918252517f598b9f043c813aa6be3426ca60d1c65d17256312890be5118dab55b0775ebe2a9181900360200190a15050565b6000806000861215611513576040516334cb3a0160e11b815260040160405180910390fd5b61151b612105565b6000871561157157600061152d6128e5565b905061153c8860008888612884565b60006115466128e5565b905061155a6115558383614c08565b6132dc565b925061156a836000806000612976565b50506115b6565b600061157b612b95565b905061158a6000898888612884565b6000611594612b95565b90506115a36115558383614c08565b92506115b3600084600080612976565b50505b8681146115c1578096505b50856000036115e357604051633ed6d50560e21b815260040160405180910390fd5b6115eb612be4565b6115fb888888886001898961200d565b611603612105565b61160b6126a1565b505060008060008061161e8b8b8b61213e565b949a509298509096509450925090508a156116bd57600085121561166a5761166a7f00000000000000000000000000000000000000000000000000000000000000008d87600003612874565b858a038a871461169f5761169f7f00000000000000000000000000000000000000000000000000000000000000008f83612874565b6116b76116ab826132dc565b60000387846000612976565b50611743565b60008612156116f4576116f47f00000000000000000000000000000000000000000000000000000000000000008d88600003612874565b848a038a8614611729576117297f00000000000000000000000000000000000000000000000000000000000000008f83612874565b61174187611736836132dc565b600003600085612976565b505b60408051878152602081018790526001600160a01b03868116828401526001600160801b0385166060830152600286900b60808301529151918e169133917fc42079f94a6350d7e6235f29174924f928cc2ac818eb64fed8004e115fbcca67919081900360a00190a36117b4612be4565b6117c48c8c8c8c8a8a8e8e612bf9565b5050505097509795505050505050565b600080600087876117e58282612dbe565b876001600160801b031660000361180f5760405163e6ace6df60e01b815260040160405180910390fd5b61182e8b8b8b6118278c6001600160801b03166132f0565b8b8b612e44565b611836612105565b600754600160b01b9004600290810b9081908b900b8161185857611858614c1b565b078160020b8c60020b8161186e5761186e614c1b565b071760020b1561189157604051635f6e14f360e01b815260040160405180910390fd5b506118c68a8a6118a98b6001600160801b03166132f0565b60028054600160a01b810490910b906001600160a01b0316613303565b5090955093506000806118d76126a1565b915091506118e787878b8b6133b2565b861561190557816118f66128e5565b6119009190614c08565b611908565b60005b915085156119285780611919612b95565b6119239190614c08565b61192b565b60005b905086821015611950576119498a6001600160801b03168389613243565b9450611954565b8994505b858110156119945760006119728b6001600160801b03168389613243565b9050856001600160801b0316816001600160801b03161015611992578095505b505b846001600160801b03166000036119be57604051632fae8a9b60e21b815260040160405180910390fd5b60006119cb8e8e8e612f13565b90506119ea818e8e6119e58a6001600160801b03166132f0565b612f3f565b9098509650508615611a3f5786821115611a3057611a2b7f00000000000000000000000000000000000000000000000000000000000000008f898503612874565b611a3f565b868214611a3f57611a3f614c31565b8515611a8e5785811115611a7f57611a7a7f00000000000000000000000000000000000000000000000000000000000000008f888403612874565b611a8e565b858114611a8e57611a8e614c31565b611a9b8787600080612976565b8a60020b8c60020b8e6001600160a01b03167f7a53080ba414158be7ec69b987b5fb7d07dee101fe85488f0853ae16239d0bde33898c8c60405180856001600160a01b03168152602001846001600160801b0316815260200183815260200182815260200194505050505060405180910390a4611b16612be4565b611b378d8d8d611b2e896001600160801b03166132f0565b8b8b8f8f613061565b505050509750975097945050505050565b611b50612105565b6005546001600160a01b03163314611b6a57611b6a612cf6565b6002805460ff8316600160c81b810260ff60c81b199092169190911790915560408051918252517f3a6271b36c1b44bd6a0a0d56230602dc6919b7c17af57254306fadf5fee69dc39181900360200190a1610d16612be4565b611bcb612105565b611bd3612cf6565b600580546001600160a01b0383166001600160a01b0319909116811790915560408051918252517f27a3944eff2135a57675f17e72501038982b73620d01f794c72e93d61a3932a29181900360200190a1610d16612be4565b600254600160b81b810461ffff1690600160c81b900460ff81169060801615611ccc57600560009054906101000a90046001600160a01b03166001600160a01b031663f70d93626040518163ffffffff1660e01b8152600401602060405180830381865afa158015611ca2573d6000803e3d6000fd5b505050506040513d601f19601f82011682018060405250810190611cc69190614c59565b91505090565b5090565b611cd8612105565b611ce0612cf6565b60008160020b131580611cf857506101f4600282900b135b80611d125750600754600282810b600160b01b909204900b145b15611d3057604051632bf827d160e21b815260040160405180910390fd5b6007805462ffffff60b01b1916600160b01b62ffffff84160217905560408051600283900b815290517f01413b1d5d4c359e9a0daa7909ecda165f6e8c51fe2ff529d74b22a5a7c02645916020908290030190a1610d16612be4565b6000611d97826133db565b6002549091506001600160a01b031615611dc457604051631499a6b760e21b815260040160405180910390fd5b600280546001600160a01b0319166001600160a01b03848116919091179091556005541615611e4d57600554604080516318dbf60160e21b8082523360048301526001600160a01b0386811660248401529251611e4d9491939091169163636fd80491604480830192602092919082900301816000875af1158015610f5a573d6000803e3d6000fd5b6000806000611e5a6136e1565b6007805462ffffff808516600160b01b0262ffffff60b01b19909216919091179091556002805461ffff808716600160d01b0261ffff60d01b19918616600160b81b0261ffff60b81b19958d16600160a01b029590951664ffffffffff60a01b198416179490941716929092178155604080516001600160a01b038c168152918a900b6020830152805195985093965091945060ff600160c81b90910416927f98636036cb66a9c19a37435efc1e90142190214e8abeb821bdba3f2990dd4c95929181900390910190a160408051600285900b815290517f01413b1d5d4c359e9a0daa7909ecda165f6e8c51fe2ff529d74b22a5a7c026459181900360200190a16040805161ffff8616815290517f3647dccc990d4941b0b05b32527ef493a98d6187b20639ca2f9743f3b55ca5e19181900360200190a16040811615612005576005546040805163416eb29160e11b8082523360048301526001600160a01b038a8116602484015260028a900b60448401529251612005949193909116916382dd652291606480830192602092919082900301816000875af1158015610f5a573d6000803e3d6000fd5b505050505050565b600254600160c81b9004600116156112425761124263029c1cb760e01b600560009054906101000a90046001600160a01b03166001600160a01b031663029c1cb7338b8b8b8b8b8b8b6040518963ffffffff1660e01b815260040180896001600160a01b03168152602001886001600160a01b031681526020018715158152602001868152602001856001600160a01b031681526020018415158152602001806020018281038252848482818152602001925080828437600081840152601f19601f82011690508083019250505099505050505050505050506020604051808303816000875af1158015610f5a573d6000803e3d6000fd5b600254600160e01b900460ff1661212f57604051636798480960e11b815260040160405180910390fd5b6002805460ff60e01b19169055565b60008060008060008087600003612168576040516301e76e6160e61b815260040160405180910390fd5b600160ff1b880361218c576040516334cb3a0160e11b815260040160405180910390fd5b6040805161014081018252600060208201819052606082018190526080820181905260a082018190528a1360c08201529081018990526002805461ffff600160d01b820481168452600160b81b82041660e084015260075480830b61012085015263010000008104830b6101008501526001600160a01b0382169750600160a01b90910490910b9450600160301b90046001600160801b03169250891561228757846001600160a01b0316886001600160a01b031610158061225c57506401000276a36001600160a01b03891611155b1561227a57604051631662672360e01b815260040160405180910390fd5b60005460808201526122ec565b846001600160a01b0316886001600160a01b03161115806122c5575073fffd8963efd1fc6a506488495d951d5263988d266001600160a01b03891610155b156122e357604051631662672360e01b815260040160405180910390fd5b60015460808201525b61231e6040518060a0016040528060008152602001600081526020016000815260200160008152602001600081525090565b60008b61233057826101200151612337565b8261010001515b6001600160a01b0388168352905061234e81613773565b6001600160a01b039081166020840181905261238b918e918a918e16118215151461237d57846020015161237f565b8c5b888f8860e00151613a4e565b60808601526060850152604084015260c0840151909750156123e3576123ba82608001518360400151016132dc565b8b039a506123d96123ce83606001516132dc565b606085015190613c20565b606084015261241b565b6123f082606001516132dc565b8b019a5061241561240a83608001518460400151016132dc565b606085015190613c3c565b60608401525b82511561245d57825160808301516000916103e89161243991613c52565b8161244657612446614c1b565b608085018051929091049182900390529490940193505b6001600160801b03851615612494576124888260800151600160801b876001600160801b0316613243565b60808401805190910190525b8160200151876001600160a01b03160361255e5782602001516124cf57600160208401528b6124c5576000546124c9565b6001545b60a08401525b60008c1561251657608084015160a08501516124f091600391859190613c7c565b50600290810b61010087015283900b61012086015260001983019750600003905061254c565b60a0840151608085015161252f91600391859190613c7c565b600290810b61012088015284900b61010087015250919650869190505b6125568682613cc9565b955050612580565b81516001600160a01b0388161461258057612578876133db565b9550506125a7565b5089158015906125a25750886001600160a01b0316866001600160a01b031614155b61231e575b60008a83604001510390508260c0015115158c1515146125cc578260600151816125d3565b8083606001515b600280546001600160b81b031916600160a01b62ffffff8b16026001600160a01b031916176001600160a01b038b161790556020850151919a509850159050612677576101008201516101208301516007805462ffffff92831665ffffffffffff1990911617630100000092909316919091029190911775ffffffffffffffffffffffffffffffff0000000000001916600160301b6001600160801b038716021790555b8a1561268a576080820151600055612693565b60808201516001555b505093975093979195509350565b6000806126ac6128e5565b6126b4612b95565b90925090506001600160801b038211156127285761271d7f00000000000000000000000000000000000000000000000000000000000000007f00000000000000000000000000000000000000000000000000000000000000006002600160801b03198501612874565b6001600160801b0391505b6001600160801b038111156127965761278c7f00000000000000000000000000000000000000000000000000000000000000007f00000000000000000000000000000000000000000000000000000000000000006002600160801b03198401612874565b506001600160801b035b600754600160301b90046001600160801b031660008190036127b757509091565b600a546001600160801b0380821691600160801b90041681851181851181806127dd5750805b1561286b5781156128155761280b846001600160801b03168803600160801b876001600160801b0316613243565b6000805490910190555b80156128485761283e836001600160801b03168703600160801b876001600160801b0316613243565b6001805490910190555b6001600160801b03808816908716600160801b026001600160801b03191617600a555b50505050509091565b61287f838383613d43565b505050565b604051631644ac7b60e11b81523390632c8958f6906128ad908790879087908790600401614c9d565b600060405180830381600087803b1580156128c757600080fd5b505af11580156128db573d6000803e3d6000fd5b5050505050505050565b6040516370a0823160e01b81523060048201526000907f00000000000000000000000000000000000000000000000000000000000000006001600160a01b0316906370a08231906024015b602060405180830381865afa15801561294d573d6000803e3d6000fd5b505050506040513d601f19601f820116820180604052508101906129719190614cbd565b905090565b81811715612b0b576004546001600160681b03600160201b82048116840191600160881b900416820160006129a84290565b60045490915061708063ffffffff91821683039091161015806129d157506001600160681b0383115b806129e257506001600160681b0382115b15612ac1578215612a3857612a387f00000000000000000000000000000000000000000000000000000000000000007f000000000000000000000000000000000000000000000000000000000000000085612874565b8115612a8957612a897f00000000000000000000000000000000000000000000000000000000000000007f000000000000000000000000000000000000000000000000000000000000000084612874565b6004805463ffffffff191663ffffffff8316179055612aa7836132dc565b8703612ab2836132dc565b90975090950394600092508291505b5060048054640100000000600160f01b031916600160881b6001600160681b039384160270ffffffffffffffffffffffffff00000000191617600160201b93909216929092021790555b83831715612b8f57600a546001600160801b0380821691600160801b9004168515612b4e57612b42612b3d8784614cd6565b613da7565b6001600160801b031691505b8415612b6d57612b61612b3d8683614cd6565b6001600160801b031690505b6001600160801b039182169116600160801b026001600160801b03191617600a555b50505050565b6040516370a0823160e01b81523060048201526000907f00000000000000000000000000000000000000000000000000000000000000006001600160a01b0316906370a0823190602401612930565b6002805460ff60e01b1916600160e01b179055565b60028054600160c81b900416156128db576128db639cb5a96360e01b600560009054906101000a90046001600160a01b03166001600160a01b0316639cb5a963338c8c8c8c8c8c8c8c6040518a63ffffffff1660e01b8152600401808a6001600160a01b03168152602001896001600160a01b031681526020018815158152602001878152602001866001600160a01b03168152602001858152602001848152602001806020018281038252848482818152602001925080828437600081840152601f19601f8201169050808301925050509a50505050505050505050506020604051808303816000875af1158015610f5a573d6000803e3d6000fd5b6040805163e8ae2b6960e01b81527fb73ce166ead2f8e9add217713a7989e4edfba9625f71dfd2516204bb67ad3442600482015233602482015290516001600160a01b037f0000000000000000000000000000000000000000000000000000000000000000169163e8ae2b699160448083019260209291908290030181865afa158015612d87573d6000803e3d6000fd5b505050506040513d6020811015612d9d57600080fd5b5051612dbc57604051634994c26960e11b815260040160405180910390fd5b565b612dcb620d89e719614cfe565b60020b8160020b1315612df157604051631445443d60e01b815260040160405180910390fd5b8160020b8160020b13612e175760405163d9a841a760e01b815260040160405180910390fd5b620d89e719600283900b1215612e4057604051631d1ac7f160e21b815260040160405180910390fd5b5050565b600254600160c81b90046004161561200557600554604051632f1208d960e11b80825233600483018181526001600160a01b038b8116602486015260028b810b60448701528a900b6064860152600f89900b608486015260c060a4860190815260c486018890526120059694959190941693635e2411b293928d928d928d928d928d928d929160e401848480828437600081840152601f19601f820116905080830192505050985050505050505050506020604051808303816000875af1158015610f5a573d6000803e3d6000fd5b62ffffff818116908316601885811b91909117901b1760009081526009602052604090205b9392505050565b6002805460008054600154919384936001600160a01b03811693600160a01b90910490910b918491829190600f89900b15612f9b57612f8560038c878c86866000613dbd565b9350612f9860038b878c86866001613dbd565b92505b600080612fad60038e8e8a8888613eae565b91509150612fbd8e8c8484613f4c565b5050505086600f0b600014613054578180612fd55750805b15612fee57612fee898984848760008d600f0b12614041565b6000612ffd8a8a8a8789613303565b91985096509050600f81900b156130525760075461302b90600160301b90046001600160801b031689613cc9565b600760066101000a8154816001600160801b0302191690836001600160801b031602179055505b505b5050505094509492505050565b600254600160c81b9004600816156128db576128db63d685201060e01b600560009054906101000a90046001600160a01b03166001600160a01b031663d6852010338c8c8c8c8c8c8c8c6040518a63ffffffff1660e01b8152600401808a6001600160a01b03168152602001896001600160a01b031681526020018860020b81526020018760020b815260200186600f0b8152602001858152602001848152602001806020018281038252848482818152602001925080828437600081840152601f19601f8201169050808301925050509a50505050505050505050506020604051808303816000875af1158015610f5a573d6000803e3d6000fd5b6001600160e01b031982811690821614612e405760405163d3f5153b60e01b81526001600160e01b03198216600482015260240160405180910390fd5b60008315806131bb575050828202828482816131b8576131b8614c1b565b04145b156131dc57600082116131cd57600080fd5b81810490829006151501612f38565b6131e7848484613243565b9050600082806131f9576131f9614c1b565b8486091115612f3857600019811061321057600080fd5b6001019392505050565b604051632982c34f60e21b8152339063a60b0d3c906128ad908790879087908790600401614c9d565b6000838302816000198587098281108382030391505080841161326557600080fd5b8060000361327857508290049050612f38565b8385870960008581038616958690049560026003880281188089028203028089028203028089028203028089028203028089028203028089029091030291819003819004600101858411909403939093029190930391909104170290509392505050565b8060008112156132eb57600080fd5b919050565b806000600f82900b12156132eb57600080fd5b60008060008061331289613773565b9050600061331f89613773565b90506000808b60020b8960020b12156133445761333d84848c61412a565b9150613382565b8a60020b8960020b12156133745761335d88848c61412a565b915061336a84898c61416a565b9050899450613382565b61337f84848c61416a565b90505b60008a600f0b1261339457818161339d565b81600003816000035b909d909c50949a509398505050505050505050565b604051633dd657c560e01b81523390633dd657c5906128ad908790879087908790600401614c9d565b60006401000276a36001600160a01b0383161080613416575073fffd8963efd1fc6a506488495d951d5263988d266001600160a01b03831610155b15613434576040516355cf1e2360e01b815260040160405180910390fd5b640100000000600160c01b03602083901b166001600160801b03811160071b81811c67ffffffffffffffff811160061b90811c63ffffffff811160051b90811c61ffff811160041b90811c60ff8111600390811b91821c600f811160021b90811c918211600190811b92831c979088119617909417909217179091171717608081106134c857607f810383901c91506134d2565b80607f0383901b91505b908002607f81811c60ff83811c9190911c800280831c81831c1c800280841c81841c1c800280851c81851c1c800280861c81861c1c800280871c81871c1c800280881c81881c1c800280891c81891c1c8002808a1c818a1c1c8002808b1c818b1c1c8002808c1c818c1c1c8002808d1c818d1c1c8002808e1c9c81901c9c909c1c80029c8d901c9e9d607f198f0160401b60c09190911c678000000000000000161760c19b909b1c674000000000000000169a909a1760c29990991c672000000000000000169890981760c39790971c671000000000000000169690961760c49590951c670800000000000000169490941760c59390931c670400000000000000169290921760c69190911c670200000000000000161760c79190911c670100000000000000161760c89190911c6680000000000000161760c99190911c6640000000000000161760ca9190911c6620000000000000161760cb9190911c6610000000000000161760cc9190911c6608000000000000161760cd9190911c66040000000000001617693627a301d71055774c8581026f028f6481ab7f045a5af012a19d003aa9198101608090811d906fdb2df09e81959a81455e260799a0632f8301901d600281810b9083900b146136d257886001600160a01b03166136b782613773565b6001600160a01b031611156136cc57816136d4565b806136d4565b815b9998505050505050505050565b60008060007f00000000000000000000000000000000000000000000000000000000000000006001600160a01b03166325b355d66040518163ffffffff1660e01b8152600401606060405180830381865afa158015613744573d6000803e3d6000fd5b505050506040513d601f19601f820116820180604052508101906137689190614d17565b925092509250909192565b6000600282900b60171d62ffffff818401821816620d89e88111156137ab57604051633c10250f60e01b815260040160405180910390fd5b600160801b60018216156137cc57506ffffcb933bd6fad37aa2d162d1a5940015b60028216156137eb576ffff97272373d413259a46990580e213a0260801c5b600482161561380a576ffff2e50f5f656932ef12357cf3c7fdcc0260801c5b6008821615613829576fffe5caca7e10e4e61c3624eaa0941cd00260801c5b6010821615613848576fffcb9843d60f6159c9db58835c9266440260801c5b6020821615613867576fff973b41fa98c081472e6896dfb254c00260801c5b6040821615613886576fff2ea16466c96a3843ec78b326b528610260801c5b60808216156138a5576ffe5dee046a99a2a811c461f1969c30530260801c5b6101008216156138c5576ffcbe86c7900a88aedcffc83b479aa3a40260801c5b6102008216156138e5576ff987a7253ac413176f2b074cf7815e540260801c5b610400821615613905576ff3392b0822b70005940c7a398e4b70f30260801c5b610800821615613925576fe7159475a2c29b7443b29c7fa6e889d90260801c5b611000821615613945576fd097f3bdfd2022b8845ad8f792aa58250260801c5b612000821615613965576fa9f746462d870fdf8a65dc1f90e061e50260801c5b614000821615613985576f70d869a156d2a1b890bb3df62baf32f70260801c5b6180008216156139a5576f31be135f97d08fd981231505542fcfa60260801c5b620100008216156139c6576f09aa508b5b7a84e1c677de54f3e99bc90260801c5b620200008216156139e6576e5d6af8dedb81196699c329225ee6040260801c5b620400008210613a2c5762040000821615613a0f576d2216e584f5fa1ea926041bedfe980260801c5b62080000821615613a2c576b048a170391f7dc42444e8fa20260801c5b60008560020b1315613a3d57600019045b63ffffffff0160201c949350505050565b600080600080614b8a8a613a645761419a613a68565b6141a95b905060008712613b40576000613a95888861ffff16620f42400362ffffff16620f424062ffffff16613243565b9050613aa68a8c8b8563ffffffff16565b9450848110613ad357899550613acc8561ffff891662ffffff620f42408290031661319a565b9250613b19565b613adf8b8a838f6141b8565b9550856001600160a01b03168a6001600160a01b031603613b0257613b02614c31565b613b11868c8b8563ffffffff16565b945084880392505b613b38868c8b8f613b2c576141d1613b30565b6141e05b63ffffffff16565b935050613c12565b614b8a8b613b50576141d1613b54565b6141e05b9050613b658a8c8b8463ffffffff16565b93508760000397506000881215613b8f576040516334cb3a0160e11b815260040160405180910390fd5b838810613b9e57899550613be3565b613baa8b8a8a8f6141ef565b9550856001600160a01b03168a6001600160a01b031614613bd757613bd4868c8b8463ffffffff16565b93505b87841115613be3578793505b613bf2868c8b8563ffffffff16565b9450613c0e8561ffff891662ffffff620f42408290031661319a565b9250505b509650965096509692505050565b80820382811315600083121514613c3657600080fd5b92915050565b81810182811215600083121514613c3657600080fd5b6000821580613c7357505081810281838281613c7057613c70614c1b565b04145b613c3657600080fd5b600283810b60009081526020869052604090206003810180548284018054870390558403905560010154600f81900b91600160801b8204810b91600160981b9004900b9450945094915050565b60008082600f0b1215613d0b57508082016001600160801b0380841690821610613d06576040516302603ee960e31b815260040160405180910390fd5b613c36565b826001600160801b03168284019150816001600160801b03161015613c3657604051634cba017960e11b815260040160405180910390fd5b600060405163a9059cbb60e01b6000526001600160a01b03841660045282602452602060006044600080895af19150813d1560203d146001600051141617169150806040525080612b8f57604051637232c81f60e11b815260040160405180910390fd5b806001600160801b03811681146132eb57600080fd5b600286900b6000908152602088905260408120805482613ddd8289613cc9565b6001600160801b031690506d09745258e83de0d0f4e400fce799811115613e17576040516312dc1b2560e11b815260040160405180910390fd5b6001830154600f0b85613e3b5788600f0b81600f0b613e369190614cd6565b613e4d565b88600f0b81600f0b613e4d9190614d62565b6001850180546001600160801b0319166001600160801b0392909216919091179055818455811594506000839003613e9f57841594508960020b8b60020b13613e9f5760038401879055600284018890555b50505050979650505050505050565b600285810b60009081526020889052604080822087840b8084529183209293849391929088900b1215613f24578860020b8760020b12613eff57816002015486039350816003015485039250613f0e565b81600201549350816003015492505b6002810154600382015494039390920391613f3f565b81600201548160020154039350816003015481600301540392505b5050965096945050505050565b8354600f84900b600003613f7657806001600160801b0316600003613f715750612b8f565b613f8c565b613f808185613cc9565b6001600160801b031685555b60018501546000818514613fbe5760018701859055613fbb8286036001600160801b038516600160801b613243565b90505b60028701546000818614613ff05760028901869055613fed8287036001600160801b038716600160801b613243565b90505b6001600160801b03838217161561403657600389018054600160801b6001600160801b03808316870181166001600160801b031990931683178290048116850116021790555b505050505050505050565b60075463010000008104600290810b919081900b90600160c81b900463ffffffff1682828289156140825761407a8c898386868c6141ff565b919450925090505b881561409e576140968b898386868c6141ff565b919450925090505b8260020b8660020b1415806140b957508160020b8560020b14155b806140d057508363ffffffff168163ffffffff1614155b1561411c576007805462ffffff80861663010000000265ffffffffffff1963ffffffff8616600160c81b021665ffffffffffff63ffffffff60c81b011990931692909217908516171790555b505050505050505050505050565b60008082600f0b12156141525761414a61155585858560000360006142f4565b600003614162565b61416261155585858560016142f4565b949350505050565b60008082600f0b121561418a5761414a611555858585600003600061438f565b614162611555858585600161438f565b6000614162838584600161438f565b600061416284848460016142f4565b60006141c8858585856001614400565b95945050505050565b600061416283858460006142f4565b6000614162848484600061438f565b60006141c8858585856000614400565b600080600083156142495760008061421860038c61461e565b915091508a60020b8860020b0361423157819750614242565b8a60020b8760020b03614242578096505b50506142d2565b6000808a60020b8860020b12801561426657508a60020b8760020b135b1561428f57508690508560028a810b908c900b1315614287578a96506142c2565b8a97506142c2565b61429d600660088b8e614774565b600281810b600090815260036020526040902060010154600160801b9004900b925090505b6142cf60038c8484614829565b50505b60006142e2600660088a8d61491f565b969a9599509597509395505050505050565b60006001600160a01b038585038116908516811061431157600080fd5b600160601b600160e01b03606085901b168361435857866001600160a01b03166143458383896001600160a01b0316613243565b8161435257614352614c1b565b04614384565b61438461436f8383896001600160a01b031661319a565b886001600160a01b0316808204910615150190565b979650505050505050565b6000846001600160a01b0316846001600160a01b031610156143b057600080fd5b6001600160a01b0385850316826143de576143d981856001600160801b0316600160601b613243565b6143f6565b6143f681856001600160801b0316600160601b61319a565b9695505050505050565b6000856001600160a01b031660000361441857600080fd5b846001600160801b031660000361442e57600080fd5b8360000361443d5750846141c8565b8115158315150361453957600160601b600160e01b03606086901b1682156144e7576001600160a01b0387168581029086828161447c5761447c614c1b565b04036144ac578181018281106144aa576144a0838a6001600160a01b03168361319a565b93505050506141c8565b505b6144de826144d3888b6001600160a01b031686816144cc576144cc614c1b565b04906149b7565b808204910615150190565b925050506141c8565b6001600160a01b0387168581029086828161450457614504614c1b565b041461450f57600080fd5b80821161451b57600080fd5b6144de614534838a6001600160a01b031684860361319a565b6149c7565b81156145a65761459f6145346001600160a01b038611156145715761456c86600160601b896001600160801b0316613243565b61458f565b6001600160801b038716606087901b8161458d5761458d614c1b565b045b6001600160a01b038916906149b7565b90506141c8565b60006001600160a01b038511156145d4576145cf85600160601b886001600160801b031661319a565b6145f1565b6145f1606086901b6001600160801b038816808204910615150190565b905080876001600160a01b03161161460857600080fd5b6001600160a01b03871603905095945050505050565b600281810b60008181526020859052604081206001810180548383556001600160b01b03198116909155818501839055600390910191909155600160801b8104830b92600160981b909104900b90620d89e719148061468e5750614685620d89e719614cfe565b60020b8360020b145b156146e757600283900b6000908152602085905260409020600101805462ffffff808516600160801b0262ffffff60801b19918516600160981b029190911665ffffffffffff60801b199092169190911717905561476d565b8060020b8260020b0361470d57604051630d6e094960e01b815260040160405180910390fd5b600282810b6000908152602086905260408082206001908101805462ffffff808816600160981b0262ffffff60981b19909216919091179091559385900b83529120018054918416600160801b0262ffffff60801b199092169190911790555b9250929050565b600190810190600090600883811d610d8a01901c90829061ffff83161b851663ffffffff16156147d7576147a887856149dd565b909450909250905080156147bd575050614162565b6147ce86610d8b840160010b6149dd565b90945090925090505b8061481a576147f58563ffffffff168360010193508360010b614a0e565b90935090508061480d5750620d89e891506141629050565b6148178684614b5e565b92505b61438487610d89198501614b5e565b600283900b620d89e71914806148505750614847620d89e719614cfe565b60020b8360020b145b612b8f578260020b8260020b12801561486e57508260020b8160020b135b61488b5760405163e45ac17d60e01b815260040160405180910390fd5b600283810b600090815260209590955260408086206001908101805465ffffffffffff60801b1916600160981b62ffffff878116820262ffffff60801b1990811693909317600160801b8a831681029190911790945597860b8a52848a208401805462ffffff60981b191698909916908102979097179097559390920b865290942090930180549092169202919091179055565b8160008061495c8785600881901d600181810b60009081526020949094526040909320805460ff9093169390931b80831890935591811490151891565b9150915081156149ad57610d8a01600181810b60081d80820b6000908152602089905260409020805460ff9094169290921b8084189092558215919092148181189350146149ad576001811b831892505b5050949350505050565b80820182811015613c3657600080fd5b806001600160a01b03811681146132eb57600080fd5b600881901d600181900b6000908152602084905260408120548190614a029085614a0e565b93969095509293505050565b60008060ff831684811c808303614a2c578160ff0385019350614b55565b7f555555555555555555555555555555555555555555555555555555555555555560008290038216908116156001600160801b0382161560071b1777ffffffffffffffff0000000000000000ffffffffffffffff82161560061b177bffffffff00000000ffffffff00000000ffffffff00000000ffffffff82161560051b177dffff0000ffff0000ffff0000ffff0000ffff0000ffff0000ffff0000ffff82161560041b177eff00ff00ff00ff00ff00ff00ff00ff00ff00ff00ff00ff00ff00ff00ff00ff82161560031b177f0f0f0f0f0f0f0f0f0f0f0f0f0f0f0f0f0f0f0f0f0f0f0f0f0f0f0f0f0f0f0f0f82161560021b177f33333333333333333333333333333333333333333333333333333333333333339091161560011b1760ff1685019350600192505b50509250929050565b600181900b600090815260208390526040902054600882901b90614b829082614a0e565b509392505050565b612dbc614d82565b634e487b7160e01b600052601160045260246000fd5b80820180821115613c3657613c36614b92565b600081600f0b60016001607f1b03198103614bd857614bd8614b92565b60000392915050565b6001600160801b03818116838216019080821115614c0157614c01614b92565b5092915050565b81810381811115613c3657613c36614b92565b634e487b7160e01b600052601260045260246000fd5b634e487b7160e01b600052600160045260246000fd5b805161ffff811681146132eb57600080fd5b600060208284031215614c6b57600080fd5b612f3882614c47565b81835281816020850137506000828201602090810191909152601f909101601f19169091010190565b8481528360208201526060604082015260006143f6606083018486614c74565b600060208284031215614ccf57600080fd5b5051919050565b8082018281126000831280158216821582161715614cf657614cf6614b92565b505092915050565b60008160020b627fffff198103614bd857614bd8614b92565b600080600060608486031215614d2c57600080fd5b614d3584614c47565b925060208401518060020b8114614d4b57600080fd5b9150614d5960408501614c47565b90509250925092565b8181036000831280158383131683831282161715614c0157614c01614b92565b634e487b7160e01b600052605160045260246000fdfea164736f6c6343000814000a",
  "linkReferences": {},
  "deployedLinkReferences": {}
}